{
	"contracts/Staking.sol": {
		"Staking": {
			"abi": [
				{
					"inputs": [
						{
							"internalType": "address",
							"name": "stakingToken",
							"type": "address"
						},
						{
							"internalType": "address",
							"name": "rewardToken",
							"type": "address"
						}
					],
					"stateMutability": "nonpayable",
					"type": "constructor"
				},
				{
					"anonymous": false,
					"inputs": [
						{
							"indexed": true,
							"internalType": "address",
							"name": "user",
							"type": "address"
						},
						{
							"indexed": true,
							"internalType": "uint256",
							"name": "amount",
							"type": "uint256"
						}
					],
					"name": "RewardsClaimed",
					"type": "event"
				},
				{
					"anonymous": false,
					"inputs": [
						{
							"indexed": true,
							"internalType": "address",
							"name": "user",
							"type": "address"
						},
						{
							"indexed": true,
							"internalType": "uint256",
							"name": "amount",
							"type": "uint256"
						}
					],
					"name": "Staked",
					"type": "event"
				},
				{
					"anonymous": false,
					"inputs": [
						{
							"indexed": true,
							"internalType": "address",
							"name": "user",
							"type": "address"
						},
						{
							"indexed": true,
							"internalType": "uint256",
							"name": "amount",
							"type": "uint256"
						}
					],
					"name": "Withdrawn",
					"type": "event"
				},
				{
					"inputs": [],
					"name": "REWARD_RATE",
					"outputs": [
						{
							"internalType": "uint256",
							"name": "",
							"type": "uint256"
						}
					],
					"stateMutability": "view",
					"type": "function"
				},
				{
					"inputs": [
						{
							"internalType": "address",
							"name": "account",
							"type": "address"
						}
					],
					"name": "earned",
					"outputs": [
						{
							"internalType": "uint256",
							"name": "",
							"type": "uint256"
						}
					],
					"stateMutability": "view",
					"type": "function"
				},
				{
					"inputs": [],
					"name": "getReward",
					"outputs": [],
					"stateMutability": "nonpayable",
					"type": "function"
				},
				{
					"inputs": [],
					"name": "lastUpdateTime",
					"outputs": [
						{
							"internalType": "uint256",
							"name": "",
							"type": "uint256"
						}
					],
					"stateMutability": "view",
					"type": "function"
				},
				{
					"inputs": [],
					"name": "rewardPerToken",
					"outputs": [
						{
							"internalType": "uint256",
							"name": "",
							"type": "uint256"
						}
					],
					"stateMutability": "view",
					"type": "function"
				},
				{
					"inputs": [],
					"name": "rewardPerTokenStored",
					"outputs": [
						{
							"internalType": "uint256",
							"name": "",
							"type": "uint256"
						}
					],
					"stateMutability": "view",
					"type": "function"
				},
				{
					"inputs": [
						{
							"internalType": "address",
							"name": "",
							"type": "address"
						}
					],
					"name": "rewards",
					"outputs": [
						{
							"internalType": "uint256",
							"name": "",
							"type": "uint256"
						}
					],
					"stateMutability": "view",
					"type": "function"
				},
				{
					"inputs": [],
					"name": "s_rewardToken",
					"outputs": [
						{
							"internalType": "contract IERC20",
							"name": "",
							"type": "address"
						}
					],
					"stateMutability": "view",
					"type": "function"
				},
				{
					"inputs": [],
					"name": "s_stakingToken",
					"outputs": [
						{
							"internalType": "contract IERC20",
							"name": "",
							"type": "address"
						}
					],
					"stateMutability": "view",
					"type": "function"
				},
				{
					"inputs": [
						{
							"internalType": "uint256",
							"name": "amount",
							"type": "uint256"
						}
					],
					"name": "stake",
					"outputs": [],
					"stateMutability": "nonpayable",
					"type": "function"
				},
				{
					"inputs": [
						{
							"internalType": "address",
							"name": "",
							"type": "address"
						}
					],
					"name": "stakedBalance",
					"outputs": [
						{
							"internalType": "uint256",
							"name": "",
							"type": "uint256"
						}
					],
					"stateMutability": "view",
					"type": "function"
				},
				{
					"inputs": [
						{
							"internalType": "address",
							"name": "",
							"type": "address"
						}
					],
					"name": "userRewardPerTokenPaid",
					"outputs": [
						{
							"internalType": "uint256",
							"name": "",
							"type": "uint256"
						}
					],
					"stateMutability": "view",
					"type": "function"
				},
				{
					"inputs": [
						{
							"internalType": "uint256",
							"name": "amount",
							"type": "uint256"
						}
					],
					"name": "withdrawStakedTokens",
					"outputs": [],
					"stateMutability": "nonpayable",
					"type": "function"
				}
			],
			"devdoc": {
				"kind": "dev",
				"methods": {},
				"version": 1
			},
			"evm": {
				"assembly": "    /* \"contracts/Staking.sol\":257:3114  contract Staking is ReentrancyGuard{... */\n  mstore(0x40, 0x80)\n    /* \"contracts/Staking.sol\":895:1036  constructor(address stakingToken,address rewardToken){... */\n  callvalue\n  dup1\n  iszero\n  tag_1\n  jumpi\n  0x00\n  dup1\n  revert\ntag_1:\n  pop\n  mload(0x40)\n  sub(codesize, bytecodeSize)\n  dup1\n  bytecodeSize\n  dup4\n  codecopy\n  dup2\n  dup2\n  add\n  0x40\n  mstore\n  dup2\n  add\n  swap1\n  tag_2\n  swap2\n  swap1\n  tag_3\n  jump\t// in\ntag_2:\n    /* \"@openzeppelin/contracts/security/ReentrancyGuard.sol\":1716:1717  1 */\n  0x01\n    /* \"@openzeppelin/contracts/security/ReentrancyGuard.sol\":1821:1828  _status */\n  0x00\n    /* \"@openzeppelin/contracts/security/ReentrancyGuard.sol\":1821:1843  _status = _NOT_ENTERED */\n  dup2\n  swap1\n  sstore\n  pop\n    /* \"contracts/Staking.sol\":977:989  stakingToken */\n  dup2\n    /* \"contracts/Staking.sol\":955:969  s_stakingToken */\n  0x01\n  0x00\n    /* \"contracts/Staking.sol\":955:990  s_stakingToken=IERC20(stakingToken) */\n  0x0100\n  exp\n  dup2\n  sload\n  dup2\n  0xffffffffffffffffffffffffffffffffffffffff\n  mul\n  not\n  and\n  swap1\n  dup4\n  0xffffffffffffffffffffffffffffffffffffffff\n  and\n  mul\n  or\n  swap1\n  sstore\n  pop\n    /* \"contracts/Staking.sol\":1018:1029  rewardToken */\n  dup1\n    /* \"contracts/Staking.sol\":997:1010  s_rewardToken */\n  0x02\n  0x00\n    /* \"contracts/Staking.sol\":997:1030  s_rewardToken=IERC20(rewardToken) */\n  0x0100\n  exp\n  dup2\n  sload\n  dup2\n  0xffffffffffffffffffffffffffffffffffffffff\n  mul\n  not\n  and\n  swap1\n  dup4\n  0xffffffffffffffffffffffffffffffffffffffff\n  and\n  mul\n  or\n  swap1\n  sstore\n  pop\n    /* \"contracts/Staking.sol\":895:1036  constructor(address stakingToken,address rewardToken){... */\n  pop\n  pop\n    /* \"contracts/Staking.sol\":257:3114  contract Staking is ReentrancyGuard{... */\n  jump(tag_8)\n    /* \"#utility.yul\":88:205   */\ntag_10:\n    /* \"#utility.yul\":197:198   */\n  0x00\n    /* \"#utility.yul\":194:195   */\n  dup1\n    /* \"#utility.yul\":187:199   */\n  revert\n    /* \"#utility.yul\":334:460   */\ntag_12:\n    /* \"#utility.yul\":371:378   */\n  0x00\n    /* \"#utility.yul\":411:453   */\n  0xffffffffffffffffffffffffffffffffffffffff\n    /* \"#utility.yul\":404:409   */\n  dup3\n    /* \"#utility.yul\":400:454   */\n  and\n    /* \"#utility.yul\":389:454   */\n  swap1\n  pop\n    /* \"#utility.yul\":334:460   */\n  swap2\n  swap1\n  pop\n  jump\t// out\n    /* \"#utility.yul\":466:562   */\ntag_13:\n    /* \"#utility.yul\":503:510   */\n  0x00\n    /* \"#utility.yul\":532:556   */\n  tag_22\n    /* \"#utility.yul\":550:555   */\n  dup3\n    /* \"#utility.yul\":532:556   */\n  tag_12\n  jump\t// in\ntag_22:\n    /* \"#utility.yul\":521:556   */\n  swap1\n  pop\n    /* \"#utility.yul\":466:562   */\n  swap2\n  swap1\n  pop\n  jump\t// out\n    /* \"#utility.yul\":568:690   */\ntag_14:\n    /* \"#utility.yul\":641:665   */\n  tag_24\n    /* \"#utility.yul\":659:664   */\n  dup2\n    /* \"#utility.yul\":641:665   */\n  tag_13\n  jump\t// in\ntag_24:\n    /* \"#utility.yul\":634:639   */\n  dup2\n    /* \"#utility.yul\":631:666   */\n  eq\n    /* \"#utility.yul\":621:684   */\n  tag_25\n  jumpi\n    /* \"#utility.yul\":680:681   */\n  0x00\n    /* \"#utility.yul\":677:678   */\n  dup1\n    /* \"#utility.yul\":670:682   */\n  revert\n    /* \"#utility.yul\":621:684   */\ntag_25:\n    /* \"#utility.yul\":568:690   */\n  pop\n  jump\t// out\n    /* \"#utility.yul\":696:839   */\ntag_15:\n    /* \"#utility.yul\":753:758   */\n  0x00\n    /* \"#utility.yul\":784:790   */\n  dup2\n    /* \"#utility.yul\":778:791   */\n  mload\n    /* \"#utility.yul\":769:791   */\n  swap1\n  pop\n    /* \"#utility.yul\":800:833   */\n  tag_27\n    /* \"#utility.yul\":827:832   */\n  dup2\n    /* \"#utility.yul\":800:833   */\n  tag_14\n  jump\t// in\ntag_27:\n    /* \"#utility.yul\":696:839   */\n  swap3\n  swap2\n  pop\n  pop\n  jump\t// out\n    /* \"#utility.yul\":845:1352   */\ntag_3:\n    /* \"#utility.yul\":924:930   */\n  0x00\n    /* \"#utility.yul\":932:938   */\n  dup1\n    /* \"#utility.yul\":981:983   */\n  0x40\n    /* \"#utility.yul\":969:978   */\n  dup4\n    /* \"#utility.yul\":960:967   */\n  dup6\n    /* \"#utility.yul\":956:979   */\n  sub\n    /* \"#utility.yul\":952:984   */\n  slt\n    /* \"#utility.yul\":949:1068   */\n  iszero\n  tag_29\n  jumpi\n    /* \"#utility.yul\":987:1066   */\n  tag_30\n  tag_10\n  jump\t// in\ntag_30:\n    /* \"#utility.yul\":949:1068   */\ntag_29:\n    /* \"#utility.yul\":1107:1108   */\n  0x00\n    /* \"#utility.yul\":1132:1196   */\n  tag_31\n    /* \"#utility.yul\":1188:1195   */\n  dup6\n    /* \"#utility.yul\":1179:1185   */\n  dup3\n    /* \"#utility.yul\":1168:1177   */\n  dup7\n    /* \"#utility.yul\":1164:1186   */\n  add\n    /* \"#utility.yul\":1132:1196   */\n  tag_15\n  jump\t// in\ntag_31:\n    /* \"#utility.yul\":1122:1196   */\n  swap3\n  pop\n    /* \"#utility.yul\":1078:1206   */\n  pop\n    /* \"#utility.yul\":1245:1247   */\n  0x20\n    /* \"#utility.yul\":1271:1335   */\n  tag_32\n    /* \"#utility.yul\":1327:1334   */\n  dup6\n    /* \"#utility.yul\":1318:1324   */\n  dup3\n    /* \"#utility.yul\":1307:1316   */\n  dup7\n    /* \"#utility.yul\":1303:1325   */\n  add\n    /* \"#utility.yul\":1271:1335   */\n  tag_15\n  jump\t// in\ntag_32:\n    /* \"#utility.yul\":1261:1335   */\n  swap2\n  pop\n    /* \"#utility.yul\":1216:1345   */\n  pop\n    /* \"#utility.yul\":845:1352   */\n  swap3\n  pop\n  swap3\n  swap1\n  pop\n  jump\t// out\n    /* \"contracts/Staking.sol\":257:3114  contract Staking is ReentrancyGuard{... */\ntag_8:\n  dataSize(sub_0)\n  dup1\n  dataOffset(sub_0)\n  0x00\n  codecopy\n  0x00\n  return\nstop\n\nsub_0: assembly {\n        /* \"contracts/Staking.sol\":257:3114  contract Staking is ReentrancyGuard{... */\n      mstore(0x40, 0x80)\n      callvalue\n      dup1\n      iszero\n      tag_1\n      jumpi\n      0x00\n      dup1\n      revert\n    tag_1:\n      pop\n      jumpi(tag_2, lt(calldatasize, 0x04))\n      shr(0xe0, calldataload(0x00))\n      dup1\n      0x6374cc00\n      gt\n      tag_16\n      jumpi\n      dup1\n      0xadca9b72\n      gt\n      tag_17\n      jumpi\n      dup1\n      0xadca9b72\n      eq\n      tag_12\n      jumpi\n      dup1\n      0xc8f33c91\n      eq\n      tag_13\n      jumpi\n      dup1\n      0xcd3daf9d\n      eq\n      tag_14\n      jumpi\n      dup1\n      0xdf136d65\n      eq\n      tag_15\n      jumpi\n      jump(tag_2)\n    tag_17:\n      dup1\n      0x6374cc00\n      eq\n      tag_9\n      jumpi\n      dup1\n      0x8b876347\n      eq\n      tag_10\n      jumpi\n      dup1\n      0xa694fc3a\n      eq\n      tag_11\n      jumpi\n      jump(tag_2)\n    tag_16:\n      dup1\n      0x8cc262\n      eq\n      tag_3\n      jumpi\n      dup1\n      0x0700037d\n      eq\n      tag_4\n      jumpi\n      dup1\n      0x0a57336a\n      eq\n      tag_5\n      jumpi\n      dup1\n      0x3d18b912\n      eq\n      tag_6\n      jumpi\n      dup1\n      0x5997bb37\n      eq\n      tag_7\n      jumpi\n      dup1\n      0x60217267\n      eq\n      tag_8\n      jumpi\n    tag_2:\n      0x00\n      dup1\n      revert\n        /* \"contracts/Staking.sol\":1379:1570  function earned(address account) public view returns(uint){... */\n    tag_3:\n      tag_18\n      0x04\n      dup1\n      calldatasize\n      sub\n      dup2\n      add\n      swap1\n      tag_19\n      swap2\n      swap1\n      tag_20\n      jump\t// in\n    tag_19:\n      tag_21\n      jump\t// in\n    tag_18:\n      mload(0x40)\n      tag_22\n      swap2\n      swap1\n      tag_23\n      jump\t// in\n    tag_22:\n      mload(0x40)\n      dup1\n      swap2\n      sub\n      swap1\n      return\n        /* \"contracts/Staking.sol\":590:627  mapping(address=>uint) public rewards */\n    tag_4:\n      tag_24\n      0x04\n      dup1\n      calldatasize\n      sub\n      dup2\n      add\n      swap1\n      tag_25\n      swap2\n      swap1\n      tag_20\n      jump\t// in\n    tag_25:\n      tag_26\n      jump\t// in\n    tag_24:\n      mload(0x40)\n      tag_27\n      swap2\n      swap1\n      tag_23\n      jump\t// in\n    tag_27:\n      mload(0x40)\n      dup1\n      swap2\n      sub\n      swap1\n      return\n        /* \"contracts/Staking.sol\":2240:2762  function withdrawStakedTokens(uint amount) external nonReentrant updateReward(msg.sender)  {... */\n    tag_5:\n      tag_28\n      0x04\n      dup1\n      calldatasize\n      sub\n      dup2\n      add\n      swap1\n      tag_29\n      swap2\n      swap1\n      tag_30\n      jump\t// in\n    tag_29:\n      tag_31\n      jump\t// in\n    tag_28:\n      stop\n        /* \"contracts/Staking.sol\":2768:3111  function getReward() external nonReentrant updateReward(msg.sender){... */\n    tag_6:\n      tag_32\n      tag_33\n      jump\t// in\n    tag_32:\n      stop\n        /* \"contracts/Staking.sol\":395:432  uint public constant REWARD_RATE=1e18 */\n    tag_7:\n      tag_34\n      tag_35\n      jump\t// in\n    tag_34:\n      mload(0x40)\n      tag_36\n      swap2\n      swap1\n      tag_23\n      jump\t// in\n    tag_36:\n      mload(0x40)\n      dup1\n      swap2\n      sub\n      swap1\n      return\n        /* \"contracts/Staking.sol\":542:585  mapping(address=>uint) public stakedBalance */\n    tag_8:\n      tag_37\n      0x04\n      dup1\n      calldatasize\n      sub\n      dup2\n      add\n      swap1\n      tag_38\n      swap2\n      swap1\n      tag_20\n      jump\t// in\n    tag_38:\n      tag_39\n      jump\t// in\n    tag_37:\n      mload(0x40)\n      tag_40\n      swap2\n      swap1\n      tag_23\n      jump\t// in\n    tag_40:\n      mload(0x40)\n      dup1\n      swap2\n      sub\n      swap1\n      return\n        /* \"contracts/Staking.sol\":361:388  IERC20 public s_rewardToken */\n    tag_9:\n      tag_41\n      tag_42\n      jump\t// in\n    tag_41:\n      mload(0x40)\n      tag_43\n      swap2\n      swap1\n      tag_44\n      jump\t// in\n    tag_43:\n      mload(0x40)\n      dup1\n      swap2\n      sub\n      swap1\n      return\n        /* \"contracts/Staking.sol\":632:684  mapping(address=>uint) public userRewardPerTokenPaid */\n    tag_10:\n      tag_45\n      0x04\n      dup1\n      calldatasize\n      sub\n      dup2\n      add\n      swap1\n      tag_46\n      swap2\n      swap1\n      tag_20\n      jump\t// in\n    tag_46:\n      tag_47\n      jump\t// in\n    tag_45:\n      mload(0x40)\n      tag_48\n      swap2\n      swap1\n      tag_23\n      jump\t// in\n    tag_48:\n      mload(0x40)\n      dup1\n      swap2\n      sub\n      swap1\n      return\n        /* \"contracts/Staking.sol\":1813:2236  function stake(uint amount) external nonReentrant updateReward(msg.sender){... */\n    tag_11:\n      tag_49\n      0x04\n      dup1\n      calldatasize\n      sub\n      dup2\n      add\n      swap1\n      tag_50\n      swap2\n      swap1\n      tag_30\n      jump\t// in\n    tag_50:\n      tag_51\n      jump\t// in\n    tag_49:\n      stop\n        /* \"contracts/Staking.sol\":328:356  IERC20 public s_stakingToken */\n    tag_12:\n      tag_52\n      tag_53\n      jump\t// in\n    tag_52:\n      mload(0x40)\n      tag_54\n      swap2\n      swap1\n      tag_44\n      jump\t// in\n    tag_54:\n      mload(0x40)\n      dup1\n      swap2\n      sub\n      swap1\n      return\n        /* \"contracts/Staking.sol\":509:535  uint public lastUpdateTime */\n    tag_13:\n      tag_55\n      tag_56\n      jump\t// in\n    tag_55:\n      mload(0x40)\n      tag_57\n      swap2\n      swap1\n      tag_23\n      jump\t// in\n    tag_57:\n      mload(0x40)\n      dup1\n      swap2\n      sub\n      swap1\n      return\n        /* \"contracts/Staking.sol\":1042:1373  function rewardPerToken() public view returns(uint){... */\n    tag_14:\n      tag_58\n      tag_59\n      jump\t// in\n    tag_58:\n      mload(0x40)\n      tag_60\n      swap2\n      swap1\n      tag_23\n      jump\t// in\n    tag_60:\n      mload(0x40)\n      dup1\n      swap2\n      sub\n      swap1\n      return\n        /* \"contracts/Staking.sol\":472:504  uint public rewardPerTokenStored */\n    tag_15:\n      tag_61\n      tag_62\n      jump\t// in\n    tag_61:\n      mload(0x40)\n      tag_63\n      swap2\n      swap1\n      tag_23\n      jump\t// in\n    tag_63:\n      mload(0x40)\n      dup1\n      swap2\n      sub\n      swap1\n      return\n        /* \"contracts/Staking.sol\":1379:1570  function earned(address account) public view returns(uint){... */\n    tag_21:\n        /* \"contracts/Staking.sol\":1432:1436  uint */\n      0x00\n        /* \"contracts/Staking.sol\":1451:1564  stakedBalance[account].mul(rewardPerToken().sub(userRewardPerTokenPaid[account])).div(1e18).add(rewards[account]) */\n      tag_65\n        /* \"contracts/Staking.sol\":1547:1554  rewards */\n      0x07\n        /* \"contracts/Staking.sol\":1547:1563  rewards[account] */\n      0x00\n        /* \"contracts/Staking.sol\":1555:1562  account */\n      dup5\n        /* \"contracts/Staking.sol\":1547:1563  rewards[account] */\n      0xffffffffffffffffffffffffffffffffffffffff\n      and\n      0xffffffffffffffffffffffffffffffffffffffff\n      and\n      dup2\n      mstore\n      0x20\n      add\n      swap1\n      dup2\n      mstore\n      0x20\n      add\n      0x00\n      keccak256\n      sload\n        /* \"contracts/Staking.sol\":1451:1542  stakedBalance[account].mul(rewardPerToken().sub(userRewardPerTokenPaid[account])).div(1e18) */\n      tag_66\n        /* \"contracts/Staking.sol\":1537:1541  1e18 */\n      0x0de0b6b3a7640000\n        /* \"contracts/Staking.sol\":1451:1532  stakedBalance[account].mul(rewardPerToken().sub(userRewardPerTokenPaid[account])) */\n      tag_67\n        /* \"contracts/Staking.sol\":1478:1531  rewardPerToken().sub(userRewardPerTokenPaid[account]) */\n      tag_68\n        /* \"contracts/Staking.sol\":1499:1521  userRewardPerTokenPaid */\n      0x08\n        /* \"contracts/Staking.sol\":1499:1530  userRewardPerTokenPaid[account] */\n      0x00\n        /* \"contracts/Staking.sol\":1522:1529  account */\n      dup10\n        /* \"contracts/Staking.sol\":1499:1530  userRewardPerTokenPaid[account] */\n      0xffffffffffffffffffffffffffffffffffffffff\n      and\n      0xffffffffffffffffffffffffffffffffffffffff\n      and\n      dup2\n      mstore\n      0x20\n      add\n      swap1\n      dup2\n      mstore\n      0x20\n      add\n      0x00\n      keccak256\n      sload\n        /* \"contracts/Staking.sol\":1478:1494  rewardPerToken() */\n      tag_69\n        /* \"contracts/Staking.sol\":1478:1492  rewardPerToken */\n      tag_59\n        /* \"contracts/Staking.sol\":1478:1494  rewardPerToken() */\n      jump\t// in\n    tag_69:\n        /* \"contracts/Staking.sol\":1478:1498  rewardPerToken().sub */\n      tag_70\n      swap1\n        /* \"contracts/Staking.sol\":1478:1531  rewardPerToken().sub(userRewardPerTokenPaid[account]) */\n      swap2\n      swap1\n      0xffffffff\n      and\n      jump\t// in\n    tag_68:\n        /* \"contracts/Staking.sol\":1451:1464  stakedBalance */\n      0x06\n        /* \"contracts/Staking.sol\":1451:1473  stakedBalance[account] */\n      0x00\n        /* \"contracts/Staking.sol\":1465:1472  account */\n      dup10\n        /* \"contracts/Staking.sol\":1451:1473  stakedBalance[account] */\n      0xffffffffffffffffffffffffffffffffffffffff\n      and\n      0xffffffffffffffffffffffffffffffffffffffff\n      and\n      dup2\n      mstore\n      0x20\n      add\n      swap1\n      dup2\n      mstore\n      0x20\n      add\n      0x00\n      keccak256\n      sload\n        /* \"contracts/Staking.sol\":1451:1477  stakedBalance[account].mul */\n      tag_71\n      swap1\n        /* \"contracts/Staking.sol\":1451:1532  stakedBalance[account].mul(rewardPerToken().sub(userRewardPerTokenPaid[account])) */\n      swap2\n      swap1\n      0xffffffff\n      and\n      jump\t// in\n    tag_67:\n        /* \"contracts/Staking.sol\":1451:1536  stakedBalance[account].mul(rewardPerToken().sub(userRewardPerTokenPaid[account])).div */\n      tag_72\n      swap1\n        /* \"contracts/Staking.sol\":1451:1542  stakedBalance[account].mul(rewardPerToken().sub(userRewardPerTokenPaid[account])).div(1e18) */\n      swap2\n      swap1\n      0xffffffff\n      and\n      jump\t// in\n    tag_66:\n        /* \"contracts/Staking.sol\":1451:1546  stakedBalance[account].mul(rewardPerToken().sub(userRewardPerTokenPaid[account])).div(1e18).add */\n      tag_73\n      swap1\n        /* \"contracts/Staking.sol\":1451:1564  stakedBalance[account].mul(rewardPerToken().sub(userRewardPerTokenPaid[account])).div(1e18).add(rewards[account]) */\n      swap2\n      swap1\n      0xffffffff\n      and\n      jump\t// in\n    tag_65:\n        /* \"contracts/Staking.sol\":1444:1564  return stakedBalance[account].mul(rewardPerToken().sub(userRewardPerTokenPaid[account])).div(1e18).add(rewards[account]) */\n      swap1\n      pop\n        /* \"contracts/Staking.sol\":1379:1570  function earned(address account) public view returns(uint){... */\n      swap2\n      swap1\n      pop\n      jump\t// out\n        /* \"contracts/Staking.sol\":590:627  mapping(address=>uint) public rewards */\n    tag_26:\n      mstore(0x20, 0x07)\n      dup1\n      0x00\n      mstore\n      keccak256(0x00, 0x40)\n      0x00\n      swap2\n      pop\n      swap1\n      pop\n      sload\n      dup2\n      jump\t// out\n        /* \"contracts/Staking.sol\":2240:2762  function withdrawStakedTokens(uint amount) external nonReentrant updateReward(msg.sender)  {... */\n    tag_31:\n        /* \"@openzeppelin/contracts/security/ReentrancyGuard.sol\":2261:2282  _nonReentrantBefore() */\n      tag_75\n        /* \"@openzeppelin/contracts/security/ReentrancyGuard.sol\":2261:2280  _nonReentrantBefore */\n      tag_76\n        /* \"@openzeppelin/contracts/security/ReentrancyGuard.sol\":2261:2282  _nonReentrantBefore() */\n      jump\t// in\n    tag_75:\n        /* \"contracts/Staking.sol\":2318:2328  msg.sender */\n      caller\n        /* \"contracts/Staking.sol\":1642:1658  rewardPerToken() */\n      tag_78\n        /* \"contracts/Staking.sol\":1642:1656  rewardPerToken */\n      tag_59\n        /* \"contracts/Staking.sol\":1642:1658  rewardPerToken() */\n      jump\t// in\n    tag_78:\n        /* \"contracts/Staking.sol\":1621:1641  rewardPerTokenStored */\n      0x04\n        /* \"contracts/Staking.sol\":1621:1658  rewardPerTokenStored=rewardPerToken() */\n      dup2\n      swap1\n      sstore\n      pop\n        /* \"contracts/Staking.sol\":1680:1695  block.timestamp */\n      timestamp\n        /* \"contracts/Staking.sol\":1665:1679  lastUpdateTime */\n      0x05\n        /* \"contracts/Staking.sol\":1665:1695  lastUpdateTime=block.timestamp */\n      dup2\n      swap1\n      sstore\n      pop\n        /* \"contracts/Staking.sol\":1719:1734  earned(account) */\n      tag_79\n        /* \"contracts/Staking.sol\":1726:1733  account */\n      dup2\n        /* \"contracts/Staking.sol\":1719:1725  earned */\n      tag_21\n        /* \"contracts/Staking.sol\":1719:1734  earned(account) */\n      jump\t// in\n    tag_79:\n        /* \"contracts/Staking.sol\":1702:1709  rewards */\n      0x07\n        /* \"contracts/Staking.sol\":1702:1718  rewards[account] */\n      0x00\n        /* \"contracts/Staking.sol\":1710:1717  account */\n      dup4\n        /* \"contracts/Staking.sol\":1702:1718  rewards[account] */\n      0xffffffffffffffffffffffffffffffffffffffff\n      and\n      0xffffffffffffffffffffffffffffffffffffffff\n      and\n      dup2\n      mstore\n      0x20\n      add\n      swap1\n      dup2\n      mstore\n      0x20\n      add\n      0x00\n      keccak256\n        /* \"contracts/Staking.sol\":1702:1734  rewards[account]=earned(account) */\n      dup2\n      swap1\n      sstore\n      pop\n        /* \"contracts/Staking.sol\":1773:1793  rewardPerTokenStored */\n      sload(0x04)\n        /* \"contracts/Staking.sol\":1741:1763  userRewardPerTokenPaid */\n      0x08\n        /* \"contracts/Staking.sol\":1741:1772  userRewardPerTokenPaid[account] */\n      0x00\n        /* \"contracts/Staking.sol\":1764:1771  account */\n      dup4\n        /* \"contracts/Staking.sol\":1741:1772  userRewardPerTokenPaid[account] */\n      0xffffffffffffffffffffffffffffffffffffffff\n      and\n      0xffffffffffffffffffffffffffffffffffffffff\n      and\n      dup2\n      mstore\n      0x20\n      add\n      swap1\n      dup2\n      mstore\n      0x20\n      add\n      0x00\n      keccak256\n        /* \"contracts/Staking.sol\":1741:1793  userRewardPerTokenPaid[account]=rewardPerTokenStored */\n      dup2\n      swap1\n      sstore\n      pop\n        /* \"contracts/Staking.sol\":2353:2354  0 */\n      0x00\n        /* \"contracts/Staking.sol\":2346:2352  amount */\n      dup3\n        /* \"contracts/Staking.sol\":2346:2354  amount>0 */\n      gt\n        /* \"contracts/Staking.sol\":2338:2390  require(amount>0,\"Amount must be greater than zero\") */\n      tag_81\n      jumpi\n      mload(0x40)\n      0x08c379a000000000000000000000000000000000000000000000000000000000\n      dup2\n      mstore\n      0x04\n      add\n      tag_82\n      swap1\n      tag_83\n      jump\t// in\n    tag_82:\n      mload(0x40)\n      dup1\n      swap2\n      sub\n      swap1\n      revert\n    tag_81:\n        /* \"contracts/Staking.sol\":2432:2438  amount */\n      dup2\n        /* \"contracts/Staking.sol\":2405:2418  stakedBalance */\n      0x06\n        /* \"contracts/Staking.sol\":2405:2430  stakedBalance[msg.sender] */\n      0x00\n        /* \"contracts/Staking.sol\":2419:2429  msg.sender */\n      caller\n        /* \"contracts/Staking.sol\":2405:2430  stakedBalance[msg.sender] */\n      0xffffffffffffffffffffffffffffffffffffffff\n      and\n      0xffffffffffffffffffffffffffffffffffffffff\n      and\n      dup2\n      mstore\n      0x20\n      add\n      swap1\n      dup2\n      mstore\n      0x20\n      add\n      0x00\n      keccak256\n      sload\n        /* \"contracts/Staking.sol\":2405:2438  stakedBalance[msg.sender]>=amount */\n      lt\n      iszero\n        /* \"contracts/Staking.sol\":2397:2466  require(stakedBalance[msg.sender]>=amount,\"Staked amount not enough\") */\n      tag_84\n      jumpi\n      mload(0x40)\n      0x08c379a000000000000000000000000000000000000000000000000000000000\n      dup2\n      mstore\n      0x04\n      add\n      tag_85\n      swap1\n      tag_86\n      jump\t// in\n    tag_85:\n      mload(0x40)\n      dup1\n      swap2\n      sub\n      swap1\n      revert\n    tag_84:\n        /* \"contracts/Staking.sol\":2491:2520  totalStakedTokens.sub(amount) */\n      tag_87\n        /* \"contracts/Staking.sol\":2513:2519  amount */\n      dup3\n        /* \"contracts/Staking.sol\":2491:2508  totalStakedTokens */\n      sload(0x03)\n        /* \"contracts/Staking.sol\":2491:2512  totalStakedTokens.sub */\n      tag_70\n      swap1\n        /* \"contracts/Staking.sol\":2491:2520  totalStakedTokens.sub(amount) */\n      swap2\n      swap1\n      0xffffffff\n      and\n      jump\t// in\n    tag_87:\n        /* \"contracts/Staking.sol\":2473:2490  totalStakedTokens */\n      0x03\n        /* \"contracts/Staking.sol\":2473:2520  totalStakedTokens=totalStakedTokens.sub(amount) */\n      dup2\n      swap1\n      sstore\n      pop\n        /* \"contracts/Staking.sol\":2553:2590  stakedBalance[msg.sender].sub(amount) */\n      tag_88\n        /* \"contracts/Staking.sol\":2583:2589  amount */\n      dup3\n        /* \"contracts/Staking.sol\":2553:2566  stakedBalance */\n      0x06\n        /* \"contracts/Staking.sol\":2553:2578  stakedBalance[msg.sender] */\n      0x00\n        /* \"contracts/Staking.sol\":2567:2577  msg.sender */\n      caller\n        /* \"contracts/Staking.sol\":2553:2578  stakedBalance[msg.sender] */\n      0xffffffffffffffffffffffffffffffffffffffff\n      and\n      0xffffffffffffffffffffffffffffffffffffffff\n      and\n      dup2\n      mstore\n      0x20\n      add\n      swap1\n      dup2\n      mstore\n      0x20\n      add\n      0x00\n      keccak256\n      sload\n        /* \"contracts/Staking.sol\":2553:2582  stakedBalance[msg.sender].sub */\n      tag_70\n      swap1\n        /* \"contracts/Staking.sol\":2553:2590  stakedBalance[msg.sender].sub(amount) */\n      swap2\n      swap1\n      0xffffffff\n      and\n      jump\t// in\n    tag_88:\n        /* \"contracts/Staking.sol\":2527:2540  stakedBalance */\n      0x06\n        /* \"contracts/Staking.sol\":2527:2552  stakedBalance[msg.sender] */\n      0x00\n        /* \"contracts/Staking.sol\":2541:2551  msg.sender */\n      caller\n        /* \"contracts/Staking.sol\":2527:2552  stakedBalance[msg.sender] */\n      0xffffffffffffffffffffffffffffffffffffffff\n      and\n      0xffffffffffffffffffffffffffffffffffffffff\n      and\n      dup2\n      mstore\n      0x20\n      add\n      swap1\n      dup2\n      mstore\n      0x20\n      add\n      0x00\n      keccak256\n        /* \"contracts/Staking.sol\":2527:2590  stakedBalance[msg.sender]=stakedBalance[msg.sender].sub(amount) */\n      dup2\n      swap1\n      sstore\n      pop\n        /* \"contracts/Staking.sol\":2624:2630  amount */\n      dup2\n        /* \"contracts/Staking.sol\":2612:2622  msg.sender */\n      caller\n        /* \"contracts/Staking.sol\":2602:2631  Withdrawn(msg.sender, amount) */\n      0xffffffffffffffffffffffffffffffffffffffff\n      and\n      0x7084f5476618d8e60b11ef0d7d3f06914655adb8793e28ff7f018d4c76d505d5\n      mload(0x40)\n      mload(0x40)\n      dup1\n      swap2\n      sub\n      swap1\n      log3\n        /* \"contracts/Staking.sol\":2658:2670  bool success */\n      0x00\n        /* \"contracts/Staking.sol\":2673:2687  s_stakingToken */\n      0x01\n      0x00\n      swap1\n      sload\n      swap1\n      0x0100\n      exp\n      swap1\n      div\n      0xffffffffffffffffffffffffffffffffffffffff\n      and\n        /* \"contracts/Staking.sol\":2673:2696  s_stakingToken.transfer */\n      0xffffffffffffffffffffffffffffffffffffffff\n      and\n      0xa9059cbb\n        /* \"contracts/Staking.sol\":2697:2707  msg.sender */\n      caller\n        /* \"contracts/Staking.sol\":2708:2714  amount */\n      dup6\n        /* \"contracts/Staking.sol\":2673:2715  s_stakingToken.transfer(msg.sender,amount) */\n      mload(0x40)\n      dup4\n      0xffffffff\n      and\n      0xe0\n      shl\n      dup2\n      mstore\n      0x04\n      add\n      tag_89\n      swap3\n      swap2\n      swap1\n      tag_90\n      jump\t// in\n    tag_89:\n      0x20\n      mload(0x40)\n      dup1\n      dup4\n      sub\n      dup2\n      0x00\n      dup8\n      gas\n      call\n      iszero\n      dup1\n      iszero\n      tag_92\n      jumpi\n      returndatasize\n      0x00\n      dup1\n      returndatacopy\n      revert(0x00, returndatasize)\n    tag_92:\n      pop\n      pop\n      pop\n      pop\n      mload(0x40)\n      returndatasize\n      not(0x1f)\n      0x1f\n      dup3\n      add\n      and\n      dup3\n      add\n      dup1\n      0x40\n      mstore\n      pop\n      dup2\n      add\n      swap1\n      tag_93\n      swap2\n      swap1\n      tag_94\n      jump\t// in\n    tag_93:\n        /* \"contracts/Staking.sol\":2658:2715  bool success = s_stakingToken.transfer(msg.sender,amount) */\n      swap1\n      pop\n        /* \"contracts/Staking.sol\":2730:2737  success */\n      dup1\n        /* \"contracts/Staking.sol\":2722:2756  require(success,\"Transfer Failed\") */\n      tag_95\n      jumpi\n      mload(0x40)\n      0x08c379a000000000000000000000000000000000000000000000000000000000\n      dup2\n      mstore\n      0x04\n      add\n      tag_96\n      swap1\n      tag_97\n      jump\t// in\n    tag_96:\n      mload(0x40)\n      dup1\n      swap2\n      sub\n      swap1\n      revert\n    tag_95:\n        /* \"contracts/Staking.sol\":2331:2762  {... */\n      pop\n        /* \"@openzeppelin/contracts/security/ReentrancyGuard.sol\":2292:2293  _ */\n      pop\n        /* \"@openzeppelin/contracts/security/ReentrancyGuard.sol\":2303:2323  _nonReentrantAfter() */\n      tag_98\n        /* \"@openzeppelin/contracts/security/ReentrancyGuard.sol\":2303:2321  _nonReentrantAfter */\n      tag_99\n        /* \"@openzeppelin/contracts/security/ReentrancyGuard.sol\":2303:2323  _nonReentrantAfter() */\n      jump\t// in\n    tag_98:\n        /* \"contracts/Staking.sol\":2240:2762  function withdrawStakedTokens(uint amount) external nonReentrant updateReward(msg.sender)  {... */\n      pop\n      jump\t// out\n        /* \"contracts/Staking.sol\":2768:3111  function getReward() external nonReentrant updateReward(msg.sender){... */\n    tag_33:\n        /* \"@openzeppelin/contracts/security/ReentrancyGuard.sol\":2261:2282  _nonReentrantBefore() */\n      tag_101\n        /* \"@openzeppelin/contracts/security/ReentrancyGuard.sol\":2261:2280  _nonReentrantBefore */\n      tag_76\n        /* \"@openzeppelin/contracts/security/ReentrancyGuard.sol\":2261:2282  _nonReentrantBefore() */\n      jump\t// in\n    tag_101:\n        /* \"contracts/Staking.sol\":2824:2834  msg.sender */\n      caller\n        /* \"contracts/Staking.sol\":1642:1658  rewardPerToken() */\n      tag_103\n        /* \"contracts/Staking.sol\":1642:1656  rewardPerToken */\n      tag_59\n        /* \"contracts/Staking.sol\":1642:1658  rewardPerToken() */\n      jump\t// in\n    tag_103:\n        /* \"contracts/Staking.sol\":1621:1641  rewardPerTokenStored */\n      0x04\n        /* \"contracts/Staking.sol\":1621:1658  rewardPerTokenStored=rewardPerToken() */\n      dup2\n      swap1\n      sstore\n      pop\n        /* \"contracts/Staking.sol\":1680:1695  block.timestamp */\n      timestamp\n        /* \"contracts/Staking.sol\":1665:1679  lastUpdateTime */\n      0x05\n        /* \"contracts/Staking.sol\":1665:1695  lastUpdateTime=block.timestamp */\n      dup2\n      swap1\n      sstore\n      pop\n        /* \"contracts/Staking.sol\":1719:1734  earned(account) */\n      tag_104\n        /* \"contracts/Staking.sol\":1726:1733  account */\n      dup2\n        /* \"contracts/Staking.sol\":1719:1725  earned */\n      tag_21\n        /* \"contracts/Staking.sol\":1719:1734  earned(account) */\n      jump\t// in\n    tag_104:\n        /* \"contracts/Staking.sol\":1702:1709  rewards */\n      0x07\n        /* \"contracts/Staking.sol\":1702:1718  rewards[account] */\n      0x00\n        /* \"contracts/Staking.sol\":1710:1717  account */\n      dup4\n        /* \"contracts/Staking.sol\":1702:1718  rewards[account] */\n      0xffffffffffffffffffffffffffffffffffffffff\n      and\n      0xffffffffffffffffffffffffffffffffffffffff\n      and\n      dup2\n      mstore\n      0x20\n      add\n      swap1\n      dup2\n      mstore\n      0x20\n      add\n      0x00\n      keccak256\n        /* \"contracts/Staking.sol\":1702:1734  rewards[account]=earned(account) */\n      dup2\n      swap1\n      sstore\n      pop\n        /* \"contracts/Staking.sol\":1773:1793  rewardPerTokenStored */\n      sload(0x04)\n        /* \"contracts/Staking.sol\":1741:1763  userRewardPerTokenPaid */\n      0x08\n        /* \"contracts/Staking.sol\":1741:1772  userRewardPerTokenPaid[account] */\n      0x00\n        /* \"contracts/Staking.sol\":1764:1771  account */\n      dup4\n        /* \"contracts/Staking.sol\":1741:1772  userRewardPerTokenPaid[account] */\n      0xffffffffffffffffffffffffffffffffffffffff\n      and\n      0xffffffffffffffffffffffffffffffffffffffff\n      and\n      dup2\n      mstore\n      0x20\n      add\n      swap1\n      dup2\n      mstore\n      0x20\n      add\n      0x00\n      keccak256\n        /* \"contracts/Staking.sol\":1741:1793  userRewardPerTokenPaid[account]=rewardPerTokenStored */\n      dup2\n      swap1\n      sstore\n      pop\n        /* \"contracts/Staking.sol\":2843:2854  uint reward */\n      0x00\n        /* \"contracts/Staking.sol\":2857:2864  rewards */\n      0x07\n        /* \"contracts/Staking.sol\":2857:2876  rewards[msg.sender] */\n      0x00\n        /* \"contracts/Staking.sol\":2865:2875  msg.sender */\n      caller\n        /* \"contracts/Staking.sol\":2857:2876  rewards[msg.sender] */\n      0xffffffffffffffffffffffffffffffffffffffff\n      and\n      0xffffffffffffffffffffffffffffffffffffffff\n      and\n      dup2\n      mstore\n      0x20\n      add\n      swap1\n      dup2\n      mstore\n      0x20\n      add\n      0x00\n      keccak256\n      sload\n        /* \"contracts/Staking.sol\":2843:2876  uint reward = rewards[msg.sender] */\n      swap1\n      pop\n        /* \"contracts/Staking.sol\":2899:2900  0 */\n      0x00\n        /* \"contracts/Staking.sol\":2892:2898  reward */\n      dup2\n        /* \"contracts/Staking.sol\":2892:2900  reward>0 */\n      gt\n        /* \"contracts/Staking.sol\":2884:2923  require(reward>0,\"No rewards to claim\") */\n      tag_106\n      jumpi\n      mload(0x40)\n      0x08c379a000000000000000000000000000000000000000000000000000000000\n      dup2\n      mstore\n      0x04\n      add\n      tag_107\n      swap1\n      tag_108\n      jump\t// in\n    tag_107:\n      mload(0x40)\n      dup1\n      swap2\n      sub\n      swap1\n      revert\n    tag_106:\n        /* \"contracts/Staking.sol\":2951:2952  0 */\n      0x00\n        /* \"contracts/Staking.sol\":2931:2938  rewards */\n      0x07\n        /* \"contracts/Staking.sol\":2931:2950  rewards[msg.sender] */\n      0x00\n        /* \"contracts/Staking.sol\":2939:2949  msg.sender */\n      caller\n        /* \"contracts/Staking.sol\":2931:2950  rewards[msg.sender] */\n      0xffffffffffffffffffffffffffffffffffffffff\n      and\n      0xffffffffffffffffffffffffffffffffffffffff\n      and\n      dup2\n      mstore\n      0x20\n      add\n      swap1\n      dup2\n      mstore\n      0x20\n      add\n      0x00\n      keccak256\n        /* \"contracts/Staking.sol\":2931:2952  rewards[msg.sender]=0 */\n      dup2\n      swap1\n      sstore\n      pop\n        /* \"contracts/Staking.sol\":2992:2998  reward */\n      dup1\n        /* \"contracts/Staking.sol\":2980:2990  msg.sender */\n      caller\n        /* \"contracts/Staking.sol\":2965:2999  RewardsClaimed(msg.sender, reward) */\n      0xffffffffffffffffffffffffffffffffffffffff\n      and\n      0xfc30cddea38e2bf4d6ea7d3f9ed3b6ad7f176419f4963bd81318067a4aee73fe\n      mload(0x40)\n      mload(0x40)\n      dup1\n      swap2\n      sub\n      swap1\n      log3\n        /* \"contracts/Staking.sol\":3007:3019  bool success */\n      0x00\n        /* \"contracts/Staking.sol\":3022:3035  s_rewardToken */\n      0x02\n      0x00\n      swap1\n      sload\n      swap1\n      0x0100\n      exp\n      swap1\n      div\n      0xffffffffffffffffffffffffffffffffffffffff\n      and\n        /* \"contracts/Staking.sol\":3022:3044  s_rewardToken.transfer */\n      0xffffffffffffffffffffffffffffffffffffffff\n      and\n      0xa9059cbb\n        /* \"contracts/Staking.sol\":3045:3055  msg.sender */\n      caller\n        /* \"contracts/Staking.sol\":3056:3062  reward */\n      dup5\n        /* \"contracts/Staking.sol\":3022:3063  s_rewardToken.transfer(msg.sender,reward) */\n      mload(0x40)\n      dup4\n      0xffffffff\n      and\n      0xe0\n      shl\n      dup2\n      mstore\n      0x04\n      add\n      tag_109\n      swap3\n      swap2\n      swap1\n      tag_90\n      jump\t// in\n    tag_109:\n      0x20\n      mload(0x40)\n      dup1\n      dup4\n      sub\n      dup2\n      0x00\n      dup8\n      gas\n      call\n      iszero\n      dup1\n      iszero\n      tag_111\n      jumpi\n      returndatasize\n      0x00\n      dup1\n      returndatacopy\n      revert(0x00, returndatasize)\n    tag_111:\n      pop\n      pop\n      pop\n      pop\n      mload(0x40)\n      returndatasize\n      not(0x1f)\n      0x1f\n      dup3\n      add\n      and\n      dup3\n      add\n      dup1\n      0x40\n      mstore\n      pop\n      dup2\n      add\n      swap1\n      tag_112\n      swap2\n      swap1\n      tag_94\n      jump\t// in\n    tag_112:\n        /* \"contracts/Staking.sol\":3007:3063  bool success = s_rewardToken.transfer(msg.sender,reward) */\n      swap1\n      pop\n        /* \"contracts/Staking.sol\":3079:3086  success */\n      dup1\n        /* \"contracts/Staking.sol\":3071:3105  require(success,\"Transfer Failed\") */\n      tag_113\n      jumpi\n      mload(0x40)\n      0x08c379a000000000000000000000000000000000000000000000000000000000\n      dup2\n      mstore\n      0x04\n      add\n      tag_114\n      swap1\n      tag_97\n      jump\t// in\n    tag_114:\n      mload(0x40)\n      dup1\n      swap2\n      sub\n      swap1\n      revert\n    tag_113:\n        /* \"contracts/Staking.sol\":2835:3111  {... */\n      pop\n      pop\n        /* \"@openzeppelin/contracts/security/ReentrancyGuard.sol\":2292:2293  _ */\n      pop\n        /* \"@openzeppelin/contracts/security/ReentrancyGuard.sol\":2303:2323  _nonReentrantAfter() */\n      tag_115\n        /* \"@openzeppelin/contracts/security/ReentrancyGuard.sol\":2303:2321  _nonReentrantAfter */\n      tag_99\n        /* \"@openzeppelin/contracts/security/ReentrancyGuard.sol\":2303:2323  _nonReentrantAfter() */\n      jump\t// in\n    tag_115:\n        /* \"contracts/Staking.sol\":2768:3111  function getReward() external nonReentrant updateReward(msg.sender){... */\n      jump\t// out\n        /* \"contracts/Staking.sol\":395:432  uint public constant REWARD_RATE=1e18 */\n    tag_35:\n        /* \"contracts/Staking.sol\":428:432  1e18 */\n      0x0de0b6b3a7640000\n        /* \"contracts/Staking.sol\":395:432  uint public constant REWARD_RATE=1e18 */\n      dup2\n      jump\t// out\n        /* \"contracts/Staking.sol\":542:585  mapping(address=>uint) public stakedBalance */\n    tag_39:\n      mstore(0x20, 0x06)\n      dup1\n      0x00\n      mstore\n      keccak256(0x00, 0x40)\n      0x00\n      swap2\n      pop\n      swap1\n      pop\n      sload\n      dup2\n      jump\t// out\n        /* \"contracts/Staking.sol\":361:388  IERC20 public s_rewardToken */\n    tag_42:\n      0x02\n      0x00\n      swap1\n      sload\n      swap1\n      0x0100\n      exp\n      swap1\n      div\n      0xffffffffffffffffffffffffffffffffffffffff\n      and\n      dup2\n      jump\t// out\n        /* \"contracts/Staking.sol\":632:684  mapping(address=>uint) public userRewardPerTokenPaid */\n    tag_47:\n      mstore(0x20, 0x08)\n      dup1\n      0x00\n      mstore\n      keccak256(0x00, 0x40)\n      0x00\n      swap2\n      pop\n      swap1\n      pop\n      sload\n      dup2\n      jump\t// out\n        /* \"contracts/Staking.sol\":1813:2236  function stake(uint amount) external nonReentrant updateReward(msg.sender){... */\n    tag_51:\n        /* \"@openzeppelin/contracts/security/ReentrancyGuard.sol\":2261:2282  _nonReentrantBefore() */\n      tag_117\n        /* \"@openzeppelin/contracts/security/ReentrancyGuard.sol\":2261:2280  _nonReentrantBefore */\n      tag_76\n        /* \"@openzeppelin/contracts/security/ReentrancyGuard.sol\":2261:2282  _nonReentrantBefore() */\n      jump\t// in\n    tag_117:\n        /* \"contracts/Staking.sol\":1876:1886  msg.sender */\n      caller\n        /* \"contracts/Staking.sol\":1642:1658  rewardPerToken() */\n      tag_119\n        /* \"contracts/Staking.sol\":1642:1656  rewardPerToken */\n      tag_59\n        /* \"contracts/Staking.sol\":1642:1658  rewardPerToken() */\n      jump\t// in\n    tag_119:\n        /* \"contracts/Staking.sol\":1621:1641  rewardPerTokenStored */\n      0x04\n        /* \"contracts/Staking.sol\":1621:1658  rewardPerTokenStored=rewardPerToken() */\n      dup2\n      swap1\n      sstore\n      pop\n        /* \"contracts/Staking.sol\":1680:1695  block.timestamp */\n      timestamp\n        /* \"contracts/Staking.sol\":1665:1679  lastUpdateTime */\n      0x05\n        /* \"contracts/Staking.sol\":1665:1695  lastUpdateTime=block.timestamp */\n      dup2\n      swap1\n      sstore\n      pop\n        /* \"contracts/Staking.sol\":1719:1734  earned(account) */\n      tag_120\n        /* \"contracts/Staking.sol\":1726:1733  account */\n      dup2\n        /* \"contracts/Staking.sol\":1719:1725  earned */\n      tag_21\n        /* \"contracts/Staking.sol\":1719:1734  earned(account) */\n      jump\t// in\n    tag_120:\n        /* \"contracts/Staking.sol\":1702:1709  rewards */\n      0x07\n        /* \"contracts/Staking.sol\":1702:1718  rewards[account] */\n      0x00\n        /* \"contracts/Staking.sol\":1710:1717  account */\n      dup4\n        /* \"contracts/Staking.sol\":1702:1718  rewards[account] */\n      0xffffffffffffffffffffffffffffffffffffffff\n      and\n      0xffffffffffffffffffffffffffffffffffffffff\n      and\n      dup2\n      mstore\n      0x20\n      add\n      swap1\n      dup2\n      mstore\n      0x20\n      add\n      0x00\n      keccak256\n        /* \"contracts/Staking.sol\":1702:1734  rewards[account]=earned(account) */\n      dup2\n      swap1\n      sstore\n      pop\n        /* \"contracts/Staking.sol\":1773:1793  rewardPerTokenStored */\n      sload(0x04)\n        /* \"contracts/Staking.sol\":1741:1763  userRewardPerTokenPaid */\n      0x08\n        /* \"contracts/Staking.sol\":1741:1772  userRewardPerTokenPaid[account] */\n      0x00\n        /* \"contracts/Staking.sol\":1764:1771  account */\n      dup4\n        /* \"contracts/Staking.sol\":1741:1772  userRewardPerTokenPaid[account] */\n      0xffffffffffffffffffffffffffffffffffffffff\n      and\n      0xffffffffffffffffffffffffffffffffffffffff\n      and\n      dup2\n      mstore\n      0x20\n      add\n      swap1\n      dup2\n      mstore\n      0x20\n      add\n      0x00\n      keccak256\n        /* \"contracts/Staking.sol\":1741:1793  userRewardPerTokenPaid[account]=rewardPerTokenStored */\n      dup2\n      swap1\n      sstore\n      pop\n        /* \"contracts/Staking.sol\":1909:1910  0 */\n      0x00\n        /* \"contracts/Staking.sol\":1902:1908  amount */\n      dup3\n        /* \"contracts/Staking.sol\":1902:1910  amount>0 */\n      gt\n        /* \"contracts/Staking.sol\":1894:1946  require(amount>0,\"Amount must be greater than zero\") */\n      tag_122\n      jumpi\n      mload(0x40)\n      0x08c379a000000000000000000000000000000000000000000000000000000000\n      dup2\n      mstore\n      0x04\n      add\n      tag_123\n      swap1\n      tag_83\n      jump\t// in\n    tag_123:\n      mload(0x40)\n      dup1\n      swap2\n      sub\n      swap1\n      revert\n    tag_122:\n        /* \"contracts/Staking.sol\":1971:2000  totalStakedTokens.add(amount) */\n      tag_124\n        /* \"contracts/Staking.sol\":1993:1999  amount */\n      dup3\n        /* \"contracts/Staking.sol\":1971:1988  totalStakedTokens */\n      sload(0x03)\n        /* \"contracts/Staking.sol\":1971:1992  totalStakedTokens.add */\n      tag_73\n      swap1\n        /* \"contracts/Staking.sol\":1971:2000  totalStakedTokens.add(amount) */\n      swap2\n      swap1\n      0xffffffff\n      and\n      jump\t// in\n    tag_124:\n        /* \"contracts/Staking.sol\":1953:1970  totalStakedTokens */\n      0x03\n        /* \"contracts/Staking.sol\":1953:2000  totalStakedTokens=totalStakedTokens.add(amount) */\n      dup2\n      swap1\n      sstore\n      pop\n        /* \"contracts/Staking.sol\":2033:2070  stakedBalance[msg.sender].add(amount) */\n      tag_125\n        /* \"contracts/Staking.sol\":2063:2069  amount */\n      dup3\n        /* \"contracts/Staking.sol\":2033:2046  stakedBalance */\n      0x06\n        /* \"contracts/Staking.sol\":2033:2058  stakedBalance[msg.sender] */\n      0x00\n        /* \"contracts/Staking.sol\":2047:2057  msg.sender */\n      caller\n        /* \"contracts/Staking.sol\":2033:2058  stakedBalance[msg.sender] */\n      0xffffffffffffffffffffffffffffffffffffffff\n      and\n      0xffffffffffffffffffffffffffffffffffffffff\n      and\n      dup2\n      mstore\n      0x20\n      add\n      swap1\n      dup2\n      mstore\n      0x20\n      add\n      0x00\n      keccak256\n      sload\n        /* \"contracts/Staking.sol\":2033:2062  stakedBalance[msg.sender].add */\n      tag_73\n      swap1\n        /* \"contracts/Staking.sol\":2033:2070  stakedBalance[msg.sender].add(amount) */\n      swap2\n      swap1\n      0xffffffff\n      and\n      jump\t// in\n    tag_125:\n        /* \"contracts/Staking.sol\":2007:2020  stakedBalance */\n      0x06\n        /* \"contracts/Staking.sol\":2007:2032  stakedBalance[msg.sender] */\n      0x00\n        /* \"contracts/Staking.sol\":2021:2031  msg.sender */\n      caller\n        /* \"contracts/Staking.sol\":2007:2032  stakedBalance[msg.sender] */\n      0xffffffffffffffffffffffffffffffffffffffff\n      and\n      0xffffffffffffffffffffffffffffffffffffffff\n      and\n      dup2\n      mstore\n      0x20\n      add\n      swap1\n      dup2\n      mstore\n      0x20\n      add\n      0x00\n      keccak256\n        /* \"contracts/Staking.sol\":2007:2070  stakedBalance[msg.sender]=stakedBalance[msg.sender].add(amount) */\n      dup2\n      swap1\n      sstore\n      pop\n        /* \"contracts/Staking.sol\":2100:2106  amount */\n      dup2\n        /* \"contracts/Staking.sol\":2089:2099  msg.sender */\n      caller\n        /* \"contracts/Staking.sol\":2082:2107  Staked(msg.sender,amount) */\n      0xffffffffffffffffffffffffffffffffffffffff\n      and\n      0x9e71bc8eea02a63969f509818f2dafb9254532904319f9dbda79b67bd34a5f3d\n      mload(0x40)\n      mload(0x40)\n      dup1\n      swap2\n      sub\n      swap1\n      log3\n        /* \"contracts/Staking.sol\":2114:2126  bool success */\n      0x00\n        /* \"contracts/Staking.sol\":2129:2143  s_stakingToken */\n      0x01\n      0x00\n      swap1\n      sload\n      swap1\n      0x0100\n      exp\n      swap1\n      div\n      0xffffffffffffffffffffffffffffffffffffffff\n      and\n        /* \"contracts/Staking.sol\":2129:2156  s_stakingToken.transferFrom */\n      0xffffffffffffffffffffffffffffffffffffffff\n      and\n      0x23b872dd\n        /* \"contracts/Staking.sol\":2157:2167  msg.sender */\n      caller\n        /* \"contracts/Staking.sol\":2176:2180  this */\n      address\n        /* \"contracts/Staking.sol\":2182:2188  amount */\n      dup7\n        /* \"contracts/Staking.sol\":2129:2189  s_stakingToken.transferFrom(msg.sender,address(this),amount) */\n      mload(0x40)\n      dup5\n      0xffffffff\n      and\n      0xe0\n      shl\n      dup2\n      mstore\n      0x04\n      add\n      tag_126\n      swap4\n      swap3\n      swap2\n      swap1\n      tag_127\n      jump\t// in\n    tag_126:\n      0x20\n      mload(0x40)\n      dup1\n      dup4\n      sub\n      dup2\n      0x00\n      dup8\n      gas\n      call\n      iszero\n      dup1\n      iszero\n      tag_129\n      jumpi\n      returndatasize\n      0x00\n      dup1\n      returndatacopy\n      revert(0x00, returndatasize)\n    tag_129:\n      pop\n      pop\n      pop\n      pop\n      mload(0x40)\n      returndatasize\n      not(0x1f)\n      0x1f\n      dup3\n      add\n      and\n      dup3\n      add\n      dup1\n      0x40\n      mstore\n      pop\n      dup2\n      add\n      swap1\n      tag_130\n      swap2\n      swap1\n      tag_94\n      jump\t// in\n    tag_130:\n        /* \"contracts/Staking.sol\":2114:2189  bool success = s_stakingToken.transferFrom(msg.sender,address(this),amount) */\n      swap1\n      pop\n        /* \"contracts/Staking.sol\":2204:2211  success */\n      dup1\n        /* \"contracts/Staking.sol\":2196:2230  require(success,\"Transfer Failed\") */\n      tag_131\n      jumpi\n      mload(0x40)\n      0x08c379a000000000000000000000000000000000000000000000000000000000\n      dup2\n      mstore\n      0x04\n      add\n      tag_132\n      swap1\n      tag_97\n      jump\t// in\n    tag_132:\n      mload(0x40)\n      dup1\n      swap2\n      sub\n      swap1\n      revert\n    tag_131:\n        /* \"contracts/Staking.sol\":1887:2236  {... */\n      pop\n        /* \"@openzeppelin/contracts/security/ReentrancyGuard.sol\":2292:2293  _ */\n      pop\n        /* \"@openzeppelin/contracts/security/ReentrancyGuard.sol\":2303:2323  _nonReentrantAfter() */\n      tag_133\n        /* \"@openzeppelin/contracts/security/ReentrancyGuard.sol\":2303:2321  _nonReentrantAfter */\n      tag_99\n        /* \"@openzeppelin/contracts/security/ReentrancyGuard.sol\":2303:2323  _nonReentrantAfter() */\n      jump\t// in\n    tag_133:\n        /* \"contracts/Staking.sol\":1813:2236  function stake(uint amount) external nonReentrant updateReward(msg.sender){... */\n      pop\n      jump\t// out\n        /* \"contracts/Staking.sol\":328:356  IERC20 public s_stakingToken */\n    tag_53:\n      0x01\n      0x00\n      swap1\n      sload\n      swap1\n      0x0100\n      exp\n      swap1\n      div\n      0xffffffffffffffffffffffffffffffffffffffff\n      and\n      dup2\n      jump\t// out\n        /* \"contracts/Staking.sol\":509:535  uint public lastUpdateTime */\n    tag_56:\n      sload(0x05)\n      dup2\n      jump\t// out\n        /* \"contracts/Staking.sol\":1042:1373  function rewardPerToken() public view returns(uint){... */\n    tag_59:\n        /* \"contracts/Staking.sol\":1088:1092  uint */\n      0x00\n        /* \"contracts/Staking.sol\":1122:1123  0 */\n      dup1\n        /* \"contracts/Staking.sol\":1103:1120  totalStakedTokens */\n      sload(0x03)\n        /* \"contracts/Staking.sol\":1103:1123  totalStakedTokens==0 */\n      sub\n        /* \"contracts/Staking.sol\":1100:1170  if(totalStakedTokens==0){... */\n      tag_135\n      jumpi\n        /* \"contracts/Staking.sol\":1142:1162  rewardPerTokenStored */\n      sload(0x04)\n        /* \"contracts/Staking.sol\":1135:1162  return rewardPerTokenStored */\n      swap1\n      pop\n      jump(tag_134)\n        /* \"contracts/Staking.sol\":1100:1170  if(totalStakedTokens==0){... */\n    tag_135:\n        /* \"contracts/Staking.sol\":1176:1190  uint totalTime */\n      0x00\n        /* \"contracts/Staking.sol\":1193:1228  block.timestamp.sub(lastUpdateTime) */\n      tag_136\n        /* \"contracts/Staking.sol\":1213:1227  lastUpdateTime */\n      sload(0x05)\n        /* \"contracts/Staking.sol\":1193:1208  block.timestamp */\n      timestamp\n        /* \"contracts/Staking.sol\":1193:1212  block.timestamp.sub */\n      tag_70\n      swap1\n        /* \"contracts/Staking.sol\":1193:1228  block.timestamp.sub(lastUpdateTime) */\n      swap2\n      swap1\n      0xffffffff\n      and\n      jump\t// in\n    tag_136:\n        /* \"contracts/Staking.sol\":1176:1228  uint totalTime = block.timestamp.sub(lastUpdateTime) */\n      swap1\n      pop\n        /* \"contracts/Staking.sol\":1235:1252  uint totalRewards */\n      0x00\n        /* \"contracts/Staking.sol\":1255:1281  REWARD_RATE.mul(totalTime) */\n      tag_137\n        /* \"contracts/Staking.sol\":1271:1280  totalTime */\n      dup3\n        /* \"contracts/Staking.sol\":428:432  1e18 */\n      0x0de0b6b3a7640000\n        /* \"contracts/Staking.sol\":1255:1270  REWARD_RATE.mul */\n      tag_71\n      swap1\n        /* \"contracts/Staking.sol\":1255:1281  REWARD_RATE.mul(totalTime) */\n      swap2\n      swap1\n      0xffffffff\n      and\n      jump\t// in\n    tag_137:\n        /* \"contracts/Staking.sol\":1235:1281  uint totalRewards = REWARD_RATE.mul(totalTime) */\n      swap1\n      pop\n        /* \"contracts/Staking.sol\":1296:1367  rewardPerTokenStored.add(totalRewards.mul(1e18).div(totalStakedTokens)) */\n      tag_138\n        /* \"contracts/Staking.sol\":1321:1366  totalRewards.mul(1e18).div(totalStakedTokens) */\n      tag_139\n        /* \"contracts/Staking.sol\":1348:1365  totalStakedTokens */\n      sload(0x03)\n        /* \"contracts/Staking.sol\":1321:1343  totalRewards.mul(1e18) */\n      tag_140\n        /* \"contracts/Staking.sol\":1338:1342  1e18 */\n      0x0de0b6b3a7640000\n        /* \"contracts/Staking.sol\":1321:1333  totalRewards */\n      dup6\n        /* \"contracts/Staking.sol\":1321:1337  totalRewards.mul */\n      tag_71\n      swap1\n        /* \"contracts/Staking.sol\":1321:1343  totalRewards.mul(1e18) */\n      swap2\n      swap1\n      0xffffffff\n      and\n      jump\t// in\n    tag_140:\n        /* \"contracts/Staking.sol\":1321:1347  totalRewards.mul(1e18).div */\n      tag_72\n      swap1\n        /* \"contracts/Staking.sol\":1321:1366  totalRewards.mul(1e18).div(totalStakedTokens) */\n      swap2\n      swap1\n      0xffffffff\n      and\n      jump\t// in\n    tag_139:\n        /* \"contracts/Staking.sol\":1296:1316  rewardPerTokenStored */\n      sload(0x04)\n        /* \"contracts/Staking.sol\":1296:1320  rewardPerTokenStored.add */\n      tag_73\n      swap1\n        /* \"contracts/Staking.sol\":1296:1367  rewardPerTokenStored.add(totalRewards.mul(1e18).div(totalStakedTokens)) */\n      swap2\n      swap1\n      0xffffffff\n      and\n      jump\t// in\n    tag_138:\n        /* \"contracts/Staking.sol\":1289:1367  return rewardPerTokenStored.add(totalRewards.mul(1e18).div(totalStakedTokens)) */\n      swap3\n      pop\n      pop\n      pop\n        /* \"contracts/Staking.sol\":1042:1373  function rewardPerToken() public view returns(uint){... */\n    tag_134:\n      swap1\n      jump\t// out\n        /* \"contracts/Staking.sol\":472:504  uint public rewardPerTokenStored */\n    tag_62:\n      sload(0x04)\n      dup2\n      jump\t// out\n        /* \"@openzeppelin/contracts/utils/math/SafeMath.sol\":3122:3218  function sub(uint256 a, uint256 b) internal pure returns (uint256) {... */\n    tag_70:\n        /* \"@openzeppelin/contracts/utils/math/SafeMath.sol\":3180:3187  uint256 */\n      0x00\n        /* \"@openzeppelin/contracts/utils/math/SafeMath.sol\":3210:3211  b */\n      dup2\n        /* \"@openzeppelin/contracts/utils/math/SafeMath.sol\":3206:3207  a */\n      dup4\n        /* \"@openzeppelin/contracts/utils/math/SafeMath.sol\":3206:3211  a - b */\n      tag_142\n      swap2\n      swap1\n      tag_143\n      jump\t// in\n    tag_142:\n        /* \"@openzeppelin/contracts/utils/math/SafeMath.sol\":3199:3211  return a - b */\n      swap1\n      pop\n        /* \"@openzeppelin/contracts/utils/math/SafeMath.sol\":3122:3218  function sub(uint256 a, uint256 b) internal pure returns (uint256) {... */\n      swap3\n      swap2\n      pop\n      pop\n      jump\t// out\n        /* \"@openzeppelin/contracts/utils/math/SafeMath.sol\":3465:3561  function mul(uint256 a, uint256 b) internal pure returns (uint256) {... */\n    tag_71:\n        /* \"@openzeppelin/contracts/utils/math/SafeMath.sol\":3523:3530  uint256 */\n      0x00\n        /* \"@openzeppelin/contracts/utils/math/SafeMath.sol\":3553:3554  b */\n      dup2\n        /* \"@openzeppelin/contracts/utils/math/SafeMath.sol\":3549:3550  a */\n      dup4\n        /* \"@openzeppelin/contracts/utils/math/SafeMath.sol\":3549:3554  a * b */\n      tag_145\n      swap2\n      swap1\n      tag_146\n      jump\t// in\n    tag_145:\n        /* \"@openzeppelin/contracts/utils/math/SafeMath.sol\":3542:3554  return a * b */\n      swap1\n      pop\n        /* \"@openzeppelin/contracts/utils/math/SafeMath.sol\":3465:3561  function mul(uint256 a, uint256 b) internal pure returns (uint256) {... */\n      swap3\n      swap2\n      pop\n      pop\n      jump\t// out\n        /* \"@openzeppelin/contracts/utils/math/SafeMath.sol\":3850:3946  function div(uint256 a, uint256 b) internal pure returns (uint256) {... */\n    tag_72:\n        /* \"@openzeppelin/contracts/utils/math/SafeMath.sol\":3908:3915  uint256 */\n      0x00\n        /* \"@openzeppelin/contracts/utils/math/SafeMath.sol\":3938:3939  b */\n      dup2\n        /* \"@openzeppelin/contracts/utils/math/SafeMath.sol\":3934:3935  a */\n      dup4\n        /* \"@openzeppelin/contracts/utils/math/SafeMath.sol\":3934:3939  a / b */\n      tag_148\n      swap2\n      swap1\n      tag_149\n      jump\t// in\n    tag_148:\n        /* \"@openzeppelin/contracts/utils/math/SafeMath.sol\":3927:3939  return a / b */\n      swap1\n      pop\n        /* \"@openzeppelin/contracts/utils/math/SafeMath.sol\":3850:3946  function div(uint256 a, uint256 b) internal pure returns (uint256) {... */\n      swap3\n      swap2\n      pop\n      pop\n      jump\t// out\n        /* \"@openzeppelin/contracts/utils/math/SafeMath.sol\":2755:2851  function add(uint256 a, uint256 b) internal pure returns (uint256) {... */\n    tag_73:\n        /* \"@openzeppelin/contracts/utils/math/SafeMath.sol\":2813:2820  uint256 */\n      0x00\n        /* \"@openzeppelin/contracts/utils/math/SafeMath.sol\":2843:2844  b */\n      dup2\n        /* \"@openzeppelin/contracts/utils/math/SafeMath.sol\":2839:2840  a */\n      dup4\n        /* \"@openzeppelin/contracts/utils/math/SafeMath.sol\":2839:2844  a + b */\n      tag_151\n      swap2\n      swap1\n      tag_152\n      jump\t// in\n    tag_151:\n        /* \"@openzeppelin/contracts/utils/math/SafeMath.sol\":2832:2844  return a + b */\n      swap1\n      pop\n        /* \"@openzeppelin/contracts/utils/math/SafeMath.sol\":2755:2851  function add(uint256 a, uint256 b) internal pure returns (uint256) {... */\n      swap3\n      swap2\n      pop\n      pop\n      jump\t// out\n        /* \"@openzeppelin/contracts/security/ReentrancyGuard.sol\":2336:2623  function _nonReentrantBefore() private {... */\n    tag_76:\n        /* \"@openzeppelin/contracts/security/ReentrancyGuard.sol\":1759:1760  2 */\n      0x02\n        /* \"@openzeppelin/contracts/security/ReentrancyGuard.sol\":2468:2475  _status */\n      sload(0x00)\n        /* \"@openzeppelin/contracts/security/ReentrancyGuard.sol\":2468:2487  _status != _ENTERED */\n      sub\n        /* \"@openzeppelin/contracts/security/ReentrancyGuard.sol\":2460:2523  require(_status != _ENTERED, \"ReentrancyGuard: reentrant call\") */\n      tag_154\n      jumpi\n      mload(0x40)\n      0x08c379a000000000000000000000000000000000000000000000000000000000\n      dup2\n      mstore\n      0x04\n      add\n      tag_155\n      swap1\n      tag_156\n      jump\t// in\n    tag_155:\n      mload(0x40)\n      dup1\n      swap2\n      sub\n      swap1\n      revert\n    tag_154:\n        /* \"@openzeppelin/contracts/security/ReentrancyGuard.sol\":1759:1760  2 */\n      0x02\n        /* \"@openzeppelin/contracts/security/ReentrancyGuard.sol\":2598:2605  _status */\n      0x00\n        /* \"@openzeppelin/contracts/security/ReentrancyGuard.sol\":2598:2616  _status = _ENTERED */\n      dup2\n      swap1\n      sstore\n      pop\n        /* \"@openzeppelin/contracts/security/ReentrancyGuard.sol\":2336:2623  function _nonReentrantBefore() private {... */\n      jump\t// out\n        /* \"@openzeppelin/contracts/security/ReentrancyGuard.sol\":2629:2838  function _nonReentrantAfter() private {... */\n    tag_99:\n        /* \"@openzeppelin/contracts/security/ReentrancyGuard.sol\":1716:1717  1 */\n      0x01\n        /* \"@openzeppelin/contracts/security/ReentrancyGuard.sol\":2809:2816  _status */\n      0x00\n        /* \"@openzeppelin/contracts/security/ReentrancyGuard.sol\":2809:2831  _status = _NOT_ENTERED */\n      dup2\n      swap1\n      sstore\n      pop\n        /* \"@openzeppelin/contracts/security/ReentrancyGuard.sol\":2629:2838  function _nonReentrantAfter() private {... */\n      jump\t// out\n        /* \"#utility.yul\":88:205   */\n    tag_159:\n        /* \"#utility.yul\":197:198   */\n      0x00\n        /* \"#utility.yul\":194:195   */\n      dup1\n        /* \"#utility.yul\":187:199   */\n      revert\n        /* \"#utility.yul\":334:460   */\n    tag_161:\n        /* \"#utility.yul\":371:378   */\n      0x00\n        /* \"#utility.yul\":411:453   */\n      0xffffffffffffffffffffffffffffffffffffffff\n        /* \"#utility.yul\":404:409   */\n      dup3\n        /* \"#utility.yul\":400:454   */\n      and\n        /* \"#utility.yul\":389:454   */\n      swap1\n      pop\n        /* \"#utility.yul\":334:460   */\n      swap2\n      swap1\n      pop\n      jump\t// out\n        /* \"#utility.yul\":466:562   */\n    tag_162:\n        /* \"#utility.yul\":503:510   */\n      0x00\n        /* \"#utility.yul\":532:556   */\n      tag_197\n        /* \"#utility.yul\":550:555   */\n      dup3\n        /* \"#utility.yul\":532:556   */\n      tag_161\n      jump\t// in\n    tag_197:\n        /* \"#utility.yul\":521:556   */\n      swap1\n      pop\n        /* \"#utility.yul\":466:562   */\n      swap2\n      swap1\n      pop\n      jump\t// out\n        /* \"#utility.yul\":568:690   */\n    tag_163:\n        /* \"#utility.yul\":641:665   */\n      tag_199\n        /* \"#utility.yul\":659:664   */\n      dup2\n        /* \"#utility.yul\":641:665   */\n      tag_162\n      jump\t// in\n    tag_199:\n        /* \"#utility.yul\":634:639   */\n      dup2\n        /* \"#utility.yul\":631:666   */\n      eq\n        /* \"#utility.yul\":621:684   */\n      tag_200\n      jumpi\n        /* \"#utility.yul\":680:681   */\n      0x00\n        /* \"#utility.yul\":677:678   */\n      dup1\n        /* \"#utility.yul\":670:682   */\n      revert\n        /* \"#utility.yul\":621:684   */\n    tag_200:\n        /* \"#utility.yul\":568:690   */\n      pop\n      jump\t// out\n        /* \"#utility.yul\":696:835   */\n    tag_164:\n        /* \"#utility.yul\":742:747   */\n      0x00\n        /* \"#utility.yul\":780:786   */\n      dup2\n        /* \"#utility.yul\":767:787   */\n      calldataload\n        /* \"#utility.yul\":758:787   */\n      swap1\n      pop\n        /* \"#utility.yul\":796:829   */\n      tag_202\n        /* \"#utility.yul\":823:828   */\n      dup2\n        /* \"#utility.yul\":796:829   */\n      tag_163\n      jump\t// in\n    tag_202:\n        /* \"#utility.yul\":696:835   */\n      swap3\n      swap2\n      pop\n      pop\n      jump\t// out\n        /* \"#utility.yul\":841:1170   */\n    tag_20:\n        /* \"#utility.yul\":900:906   */\n      0x00\n        /* \"#utility.yul\":949:951   */\n      0x20\n        /* \"#utility.yul\":937:946   */\n      dup3\n        /* \"#utility.yul\":928:935   */\n      dup5\n        /* \"#utility.yul\":924:947   */\n      sub\n        /* \"#utility.yul\":920:952   */\n      slt\n        /* \"#utility.yul\":917:1036   */\n      iszero\n      tag_204\n      jumpi\n        /* \"#utility.yul\":955:1034   */\n      tag_205\n      tag_159\n      jump\t// in\n    tag_205:\n        /* \"#utility.yul\":917:1036   */\n    tag_204:\n        /* \"#utility.yul\":1075:1076   */\n      0x00\n        /* \"#utility.yul\":1100:1153   */\n      tag_206\n        /* \"#utility.yul\":1145:1152   */\n      dup5\n        /* \"#utility.yul\":1136:1142   */\n      dup3\n        /* \"#utility.yul\":1125:1134   */\n      dup6\n        /* \"#utility.yul\":1121:1143   */\n      add\n        /* \"#utility.yul\":1100:1153   */\n      tag_164\n      jump\t// in\n    tag_206:\n        /* \"#utility.yul\":1090:1153   */\n      swap2\n      pop\n        /* \"#utility.yul\":1046:1163   */\n      pop\n        /* \"#utility.yul\":841:1170   */\n      swap3\n      swap2\n      pop\n      pop\n      jump\t// out\n        /* \"#utility.yul\":1176:1253   */\n    tag_165:\n        /* \"#utility.yul\":1213:1220   */\n      0x00\n        /* \"#utility.yul\":1242:1247   */\n      dup2\n        /* \"#utility.yul\":1231:1247   */\n      swap1\n      pop\n        /* \"#utility.yul\":1176:1253   */\n      swap2\n      swap1\n      pop\n      jump\t// out\n        /* \"#utility.yul\":1259:1377   */\n    tag_166:\n        /* \"#utility.yul\":1346:1370   */\n      tag_209\n        /* \"#utility.yul\":1364:1369   */\n      dup2\n        /* \"#utility.yul\":1346:1370   */\n      tag_165\n      jump\t// in\n    tag_209:\n        /* \"#utility.yul\":1341:1344   */\n      dup3\n        /* \"#utility.yul\":1334:1371   */\n      mstore\n        /* \"#utility.yul\":1259:1377   */\n      pop\n      pop\n      jump\t// out\n        /* \"#utility.yul\":1383:1605   */\n    tag_23:\n        /* \"#utility.yul\":1476:1480   */\n      0x00\n        /* \"#utility.yul\":1514:1516   */\n      0x20\n        /* \"#utility.yul\":1503:1512   */\n      dup3\n        /* \"#utility.yul\":1499:1517   */\n      add\n        /* \"#utility.yul\":1491:1517   */\n      swap1\n      pop\n        /* \"#utility.yul\":1527:1598   */\n      tag_211\n        /* \"#utility.yul\":1595:1596   */\n      0x00\n        /* \"#utility.yul\":1584:1593   */\n      dup4\n        /* \"#utility.yul\":1580:1597   */\n      add\n        /* \"#utility.yul\":1571:1577   */\n      dup5\n        /* \"#utility.yul\":1527:1598   */\n      tag_166\n      jump\t// in\n    tag_211:\n        /* \"#utility.yul\":1383:1605   */\n      swap3\n      swap2\n      pop\n      pop\n      jump\t// out\n        /* \"#utility.yul\":1611:1733   */\n    tag_167:\n        /* \"#utility.yul\":1684:1708   */\n      tag_213\n        /* \"#utility.yul\":1702:1707   */\n      dup2\n        /* \"#utility.yul\":1684:1708   */\n      tag_165\n      jump\t// in\n    tag_213:\n        /* \"#utility.yul\":1677:1682   */\n      dup2\n        /* \"#utility.yul\":1674:1709   */\n      eq\n        /* \"#utility.yul\":1664:1727   */\n      tag_214\n      jumpi\n        /* \"#utility.yul\":1723:1724   */\n      0x00\n        /* \"#utility.yul\":1720:1721   */\n      dup1\n        /* \"#utility.yul\":1713:1725   */\n      revert\n        /* \"#utility.yul\":1664:1727   */\n    tag_214:\n        /* \"#utility.yul\":1611:1733   */\n      pop\n      jump\t// out\n        /* \"#utility.yul\":1739:1878   */\n    tag_168:\n        /* \"#utility.yul\":1785:1790   */\n      0x00\n        /* \"#utility.yul\":1823:1829   */\n      dup2\n        /* \"#utility.yul\":1810:1830   */\n      calldataload\n        /* \"#utility.yul\":1801:1830   */\n      swap1\n      pop\n        /* \"#utility.yul\":1839:1872   */\n      tag_216\n        /* \"#utility.yul\":1866:1871   */\n      dup2\n        /* \"#utility.yul\":1839:1872   */\n      tag_167\n      jump\t// in\n    tag_216:\n        /* \"#utility.yul\":1739:1878   */\n      swap3\n      swap2\n      pop\n      pop\n      jump\t// out\n        /* \"#utility.yul\":1884:2213   */\n    tag_30:\n        /* \"#utility.yul\":1943:1949   */\n      0x00\n        /* \"#utility.yul\":1992:1994   */\n      0x20\n        /* \"#utility.yul\":1980:1989   */\n      dup3\n        /* \"#utility.yul\":1971:1978   */\n      dup5\n        /* \"#utility.yul\":1967:1990   */\n      sub\n        /* \"#utility.yul\":1963:1995   */\n      slt\n        /* \"#utility.yul\":1960:2079   */\n      iszero\n      tag_218\n      jumpi\n        /* \"#utility.yul\":1998:2077   */\n      tag_219\n      tag_159\n      jump\t// in\n    tag_219:\n        /* \"#utility.yul\":1960:2079   */\n    tag_218:\n        /* \"#utility.yul\":2118:2119   */\n      0x00\n        /* \"#utility.yul\":2143:2196   */\n      tag_220\n        /* \"#utility.yul\":2188:2195   */\n      dup5\n        /* \"#utility.yul\":2179:2185   */\n      dup3\n        /* \"#utility.yul\":2168:2177   */\n      dup6\n        /* \"#utility.yul\":2164:2186   */\n      add\n        /* \"#utility.yul\":2143:2196   */\n      tag_168\n      jump\t// in\n    tag_220:\n        /* \"#utility.yul\":2133:2196   */\n      swap2\n      pop\n        /* \"#utility.yul\":2089:2206   */\n      pop\n        /* \"#utility.yul\":1884:2213   */\n      swap3\n      swap2\n      pop\n      pop\n      jump\t// out\n        /* \"#utility.yul\":2219:2279   */\n    tag_169:\n        /* \"#utility.yul\":2247:2250   */\n      0x00\n        /* \"#utility.yul\":2268:2273   */\n      dup2\n        /* \"#utility.yul\":2261:2273   */\n      swap1\n      pop\n        /* \"#utility.yul\":2219:2279   */\n      swap2\n      swap1\n      pop\n      jump\t// out\n        /* \"#utility.yul\":2285:2427   */\n    tag_170:\n        /* \"#utility.yul\":2335:2344   */\n      0x00\n        /* \"#utility.yul\":2368:2421   */\n      tag_223\n        /* \"#utility.yul\":2386:2420   */\n      tag_224\n        /* \"#utility.yul\":2395:2419   */\n      tag_225\n        /* \"#utility.yul\":2413:2418   */\n      dup5\n        /* \"#utility.yul\":2395:2419   */\n      tag_161\n      jump\t// in\n    tag_225:\n        /* \"#utility.yul\":2386:2420   */\n      tag_169\n      jump\t// in\n    tag_224:\n        /* \"#utility.yul\":2368:2421   */\n      tag_161\n      jump\t// in\n    tag_223:\n        /* \"#utility.yul\":2355:2421   */\n      swap1\n      pop\n        /* \"#utility.yul\":2285:2427   */\n      swap2\n      swap1\n      pop\n      jump\t// out\n        /* \"#utility.yul\":2433:2559   */\n    tag_171:\n        /* \"#utility.yul\":2483:2492   */\n      0x00\n        /* \"#utility.yul\":2516:2553   */\n      tag_227\n        /* \"#utility.yul\":2547:2552   */\n      dup3\n        /* \"#utility.yul\":2516:2553   */\n      tag_170\n      jump\t// in\n    tag_227:\n        /* \"#utility.yul\":2503:2553   */\n      swap1\n      pop\n        /* \"#utility.yul\":2433:2559   */\n      swap2\n      swap1\n      pop\n      jump\t// out\n        /* \"#utility.yul\":2565:2705   */\n    tag_172:\n        /* \"#utility.yul\":2629:2638   */\n      0x00\n        /* \"#utility.yul\":2662:2699   */\n      tag_229\n        /* \"#utility.yul\":2693:2698   */\n      dup3\n        /* \"#utility.yul\":2662:2699   */\n      tag_171\n      jump\t// in\n    tag_229:\n        /* \"#utility.yul\":2649:2699   */\n      swap1\n      pop\n        /* \"#utility.yul\":2565:2705   */\n      swap2\n      swap1\n      pop\n      jump\t// out\n        /* \"#utility.yul\":2711:2870   */\n    tag_173:\n        /* \"#utility.yul\":2812:2863   */\n      tag_231\n        /* \"#utility.yul\":2857:2862   */\n      dup2\n        /* \"#utility.yul\":2812:2863   */\n      tag_172\n      jump\t// in\n    tag_231:\n        /* \"#utility.yul\":2807:2810   */\n      dup3\n        /* \"#utility.yul\":2800:2864   */\n      mstore\n        /* \"#utility.yul\":2711:2870   */\n      pop\n      pop\n      jump\t// out\n        /* \"#utility.yul\":2876:3126   */\n    tag_44:\n        /* \"#utility.yul\":2983:2987   */\n      0x00\n        /* \"#utility.yul\":3021:3023   */\n      0x20\n        /* \"#utility.yul\":3010:3019   */\n      dup3\n        /* \"#utility.yul\":3006:3024   */\n      add\n        /* \"#utility.yul\":2998:3024   */\n      swap1\n      pop\n        /* \"#utility.yul\":3034:3119   */\n      tag_233\n        /* \"#utility.yul\":3116:3117   */\n      0x00\n        /* \"#utility.yul\":3105:3114   */\n      dup4\n        /* \"#utility.yul\":3101:3118   */\n      add\n        /* \"#utility.yul\":3092:3098   */\n      dup5\n        /* \"#utility.yul\":3034:3119   */\n      tag_173\n      jump\t// in\n    tag_233:\n        /* \"#utility.yul\":2876:3126   */\n      swap3\n      swap2\n      pop\n      pop\n      jump\t// out\n        /* \"#utility.yul\":3132:3301   */\n    tag_174:\n        /* \"#utility.yul\":3216:3227   */\n      0x00\n        /* \"#utility.yul\":3250:3256   */\n      dup3\n        /* \"#utility.yul\":3245:3248   */\n      dup3\n        /* \"#utility.yul\":3238:3257   */\n      mstore\n        /* \"#utility.yul\":3290:3294   */\n      0x20\n        /* \"#utility.yul\":3285:3288   */\n      dup3\n        /* \"#utility.yul\":3281:3295   */\n      add\n        /* \"#utility.yul\":3266:3295   */\n      swap1\n      pop\n        /* \"#utility.yul\":3132:3301   */\n      swap3\n      swap2\n      pop\n      pop\n      jump\t// out\n        /* \"#utility.yul\":3307:3489   */\n    tag_175:\n        /* \"#utility.yul\":3447:3481   */\n      0x416d6f756e74206d7573742062652067726561746572207468616e207a65726f\n        /* \"#utility.yul\":3443:3444   */\n      0x00\n        /* \"#utility.yul\":3435:3441   */\n      dup3\n        /* \"#utility.yul\":3431:3445   */\n      add\n        /* \"#utility.yul\":3424:3482   */\n      mstore\n        /* \"#utility.yul\":3307:3489   */\n      pop\n      jump\t// out\n        /* \"#utility.yul\":3495:3861   */\n    tag_176:\n        /* \"#utility.yul\":3637:3640   */\n      0x00\n        /* \"#utility.yul\":3658:3725   */\n      tag_237\n        /* \"#utility.yul\":3722:3724   */\n      0x20\n        /* \"#utility.yul\":3717:3720   */\n      dup4\n        /* \"#utility.yul\":3658:3725   */\n      tag_174\n      jump\t// in\n    tag_237:\n        /* \"#utility.yul\":3651:3725   */\n      swap2\n      pop\n        /* \"#utility.yul\":3734:3827   */\n      tag_238\n        /* \"#utility.yul\":3823:3826   */\n      dup3\n        /* \"#utility.yul\":3734:3827   */\n      tag_175\n      jump\t// in\n    tag_238:\n        /* \"#utility.yul\":3852:3854   */\n      0x20\n        /* \"#utility.yul\":3847:3850   */\n      dup3\n        /* \"#utility.yul\":3843:3855   */\n      add\n        /* \"#utility.yul\":3836:3855   */\n      swap1\n      pop\n        /* \"#utility.yul\":3495:3861   */\n      swap2\n      swap1\n      pop\n      jump\t// out\n        /* \"#utility.yul\":3867:4286   */\n    tag_83:\n        /* \"#utility.yul\":4033:4037   */\n      0x00\n        /* \"#utility.yul\":4071:4073   */\n      0x20\n        /* \"#utility.yul\":4060:4069   */\n      dup3\n        /* \"#utility.yul\":4056:4074   */\n      add\n        /* \"#utility.yul\":4048:4074   */\n      swap1\n      pop\n        /* \"#utility.yul\":4120:4129   */\n      dup2\n        /* \"#utility.yul\":4114:4118   */\n      dup2\n        /* \"#utility.yul\":4110:4130   */\n      sub\n        /* \"#utility.yul\":4106:4107   */\n      0x00\n        /* \"#utility.yul\":4095:4104   */\n      dup4\n        /* \"#utility.yul\":4091:4108   */\n      add\n        /* \"#utility.yul\":4084:4131   */\n      mstore\n        /* \"#utility.yul\":4148:4279   */\n      tag_240\n        /* \"#utility.yul\":4274:4278   */\n      dup2\n        /* \"#utility.yul\":4148:4279   */\n      tag_176\n      jump\t// in\n    tag_240:\n        /* \"#utility.yul\":4140:4279   */\n      swap1\n      pop\n        /* \"#utility.yul\":3867:4286   */\n      swap2\n      swap1\n      pop\n      jump\t// out\n        /* \"#utility.yul\":4292:4466   */\n    tag_177:\n        /* \"#utility.yul\":4432:4458   */\n      0x5374616b656420616d6f756e74206e6f7420656e6f7567680000000000000000\n        /* \"#utility.yul\":4428:4429   */\n      0x00\n        /* \"#utility.yul\":4420:4426   */\n      dup3\n        /* \"#utility.yul\":4416:4430   */\n      add\n        /* \"#utility.yul\":4409:4459   */\n      mstore\n        /* \"#utility.yul\":4292:4466   */\n      pop\n      jump\t// out\n        /* \"#utility.yul\":4472:4838   */\n    tag_178:\n        /* \"#utility.yul\":4614:4617   */\n      0x00\n        /* \"#utility.yul\":4635:4702   */\n      tag_243\n        /* \"#utility.yul\":4699:4701   */\n      0x18\n        /* \"#utility.yul\":4694:4697   */\n      dup4\n        /* \"#utility.yul\":4635:4702   */\n      tag_174\n      jump\t// in\n    tag_243:\n        /* \"#utility.yul\":4628:4702   */\n      swap2\n      pop\n        /* \"#utility.yul\":4711:4804   */\n      tag_244\n        /* \"#utility.yul\":4800:4803   */\n      dup3\n        /* \"#utility.yul\":4711:4804   */\n      tag_177\n      jump\t// in\n    tag_244:\n        /* \"#utility.yul\":4829:4831   */\n      0x20\n        /* \"#utility.yul\":4824:4827   */\n      dup3\n        /* \"#utility.yul\":4820:4832   */\n      add\n        /* \"#utility.yul\":4813:4832   */\n      swap1\n      pop\n        /* \"#utility.yul\":4472:4838   */\n      swap2\n      swap1\n      pop\n      jump\t// out\n        /* \"#utility.yul\":4844:5263   */\n    tag_86:\n        /* \"#utility.yul\":5010:5014   */\n      0x00\n        /* \"#utility.yul\":5048:5050   */\n      0x20\n        /* \"#utility.yul\":5037:5046   */\n      dup3\n        /* \"#utility.yul\":5033:5051   */\n      add\n        /* \"#utility.yul\":5025:5051   */\n      swap1\n      pop\n        /* \"#utility.yul\":5097:5106   */\n      dup2\n        /* \"#utility.yul\":5091:5095   */\n      dup2\n        /* \"#utility.yul\":5087:5107   */\n      sub\n        /* \"#utility.yul\":5083:5084   */\n      0x00\n        /* \"#utility.yul\":5072:5081   */\n      dup4\n        /* \"#utility.yul\":5068:5085   */\n      add\n        /* \"#utility.yul\":5061:5108   */\n      mstore\n        /* \"#utility.yul\":5125:5256   */\n      tag_246\n        /* \"#utility.yul\":5251:5255   */\n      dup2\n        /* \"#utility.yul\":5125:5256   */\n      tag_178\n      jump\t// in\n    tag_246:\n        /* \"#utility.yul\":5117:5256   */\n      swap1\n      pop\n        /* \"#utility.yul\":4844:5263   */\n      swap2\n      swap1\n      pop\n      jump\t// out\n        /* \"#utility.yul\":5269:5387   */\n    tag_179:\n        /* \"#utility.yul\":5356:5380   */\n      tag_248\n        /* \"#utility.yul\":5374:5379   */\n      dup2\n        /* \"#utility.yul\":5356:5380   */\n      tag_162\n      jump\t// in\n    tag_248:\n        /* \"#utility.yul\":5351:5354   */\n      dup3\n        /* \"#utility.yul\":5344:5381   */\n      mstore\n        /* \"#utility.yul\":5269:5387   */\n      pop\n      pop\n      jump\t// out\n        /* \"#utility.yul\":5393:5725   */\n    tag_90:\n        /* \"#utility.yul\":5514:5518   */\n      0x00\n        /* \"#utility.yul\":5552:5554   */\n      0x40\n        /* \"#utility.yul\":5541:5550   */\n      dup3\n        /* \"#utility.yul\":5537:5555   */\n      add\n        /* \"#utility.yul\":5529:5555   */\n      swap1\n      pop\n        /* \"#utility.yul\":5565:5636   */\n      tag_250\n        /* \"#utility.yul\":5633:5634   */\n      0x00\n        /* \"#utility.yul\":5622:5631   */\n      dup4\n        /* \"#utility.yul\":5618:5635   */\n      add\n        /* \"#utility.yul\":5609:5615   */\n      dup6\n        /* \"#utility.yul\":5565:5636   */\n      tag_179\n      jump\t// in\n    tag_250:\n        /* \"#utility.yul\":5646:5718   */\n      tag_251\n        /* \"#utility.yul\":5714:5716   */\n      0x20\n        /* \"#utility.yul\":5703:5712   */\n      dup4\n        /* \"#utility.yul\":5699:5717   */\n      add\n        /* \"#utility.yul\":5690:5696   */\n      dup5\n        /* \"#utility.yul\":5646:5718   */\n      tag_166\n      jump\t// in\n    tag_251:\n        /* \"#utility.yul\":5393:5725   */\n      swap4\n      swap3\n      pop\n      pop\n      pop\n      jump\t// out\n        /* \"#utility.yul\":5731:5821   */\n    tag_180:\n        /* \"#utility.yul\":5765:5772   */\n      0x00\n        /* \"#utility.yul\":5808:5813   */\n      dup2\n        /* \"#utility.yul\":5801:5814   */\n      iszero\n        /* \"#utility.yul\":5794:5815   */\n      iszero\n        /* \"#utility.yul\":5783:5815   */\n      swap1\n      pop\n        /* \"#utility.yul\":5731:5821   */\n      swap2\n      swap1\n      pop\n      jump\t// out\n        /* \"#utility.yul\":5827:5943   */\n    tag_181:\n        /* \"#utility.yul\":5897:5918   */\n      tag_254\n        /* \"#utility.yul\":5912:5917   */\n      dup2\n        /* \"#utility.yul\":5897:5918   */\n      tag_180\n      jump\t// in\n    tag_254:\n        /* \"#utility.yul\":5890:5895   */\n      dup2\n        /* \"#utility.yul\":5887:5919   */\n      eq\n        /* \"#utility.yul\":5877:5937   */\n      tag_255\n      jumpi\n        /* \"#utility.yul\":5933:5934   */\n      0x00\n        /* \"#utility.yul\":5930:5931   */\n      dup1\n        /* \"#utility.yul\":5923:5935   */\n      revert\n        /* \"#utility.yul\":5877:5937   */\n    tag_255:\n        /* \"#utility.yul\":5827:5943   */\n      pop\n      jump\t// out\n        /* \"#utility.yul\":5949:6086   */\n    tag_182:\n        /* \"#utility.yul\":6003:6008   */\n      0x00\n        /* \"#utility.yul\":6034:6040   */\n      dup2\n        /* \"#utility.yul\":6028:6041   */\n      mload\n        /* \"#utility.yul\":6019:6041   */\n      swap1\n      pop\n        /* \"#utility.yul\":6050:6080   */\n      tag_257\n        /* \"#utility.yul\":6074:6079   */\n      dup2\n        /* \"#utility.yul\":6050:6080   */\n      tag_181\n      jump\t// in\n    tag_257:\n        /* \"#utility.yul\":5949:6086   */\n      swap3\n      swap2\n      pop\n      pop\n      jump\t// out\n        /* \"#utility.yul\":6092:6437   */\n    tag_94:\n        /* \"#utility.yul\":6159:6165   */\n      0x00\n        /* \"#utility.yul\":6208:6210   */\n      0x20\n        /* \"#utility.yul\":6196:6205   */\n      dup3\n        /* \"#utility.yul\":6187:6194   */\n      dup5\n        /* \"#utility.yul\":6183:6206   */\n      sub\n        /* \"#utility.yul\":6179:6211   */\n      slt\n        /* \"#utility.yul\":6176:6295   */\n      iszero\n      tag_259\n      jumpi\n        /* \"#utility.yul\":6214:6293   */\n      tag_260\n      tag_159\n      jump\t// in\n    tag_260:\n        /* \"#utility.yul\":6176:6295   */\n    tag_259:\n        /* \"#utility.yul\":6334:6335   */\n      0x00\n        /* \"#utility.yul\":6359:6420   */\n      tag_261\n        /* \"#utility.yul\":6412:6419   */\n      dup5\n        /* \"#utility.yul\":6403:6409   */\n      dup3\n        /* \"#utility.yul\":6392:6401   */\n      dup6\n        /* \"#utility.yul\":6388:6410   */\n      add\n        /* \"#utility.yul\":6359:6420   */\n      tag_182\n      jump\t// in\n    tag_261:\n        /* \"#utility.yul\":6349:6420   */\n      swap2\n      pop\n        /* \"#utility.yul\":6305:6430   */\n      pop\n        /* \"#utility.yul\":6092:6437   */\n      swap3\n      swap2\n      pop\n      pop\n      jump\t// out\n        /* \"#utility.yul\":6443:6608   */\n    tag_183:\n        /* \"#utility.yul\":6583:6600   */\n      0x5472616e73666572204661696c65640000000000000000000000000000000000\n        /* \"#utility.yul\":6579:6580   */\n      0x00\n        /* \"#utility.yul\":6571:6577   */\n      dup3\n        /* \"#utility.yul\":6567:6581   */\n      add\n        /* \"#utility.yul\":6560:6601   */\n      mstore\n        /* \"#utility.yul\":6443:6608   */\n      pop\n      jump\t// out\n        /* \"#utility.yul\":6614:6980   */\n    tag_184:\n        /* \"#utility.yul\":6756:6759   */\n      0x00\n        /* \"#utility.yul\":6777:6844   */\n      tag_264\n        /* \"#utility.yul\":6841:6843   */\n      0x0f\n        /* \"#utility.yul\":6836:6839   */\n      dup4\n        /* \"#utility.yul\":6777:6844   */\n      tag_174\n      jump\t// in\n    tag_264:\n        /* \"#utility.yul\":6770:6844   */\n      swap2\n      pop\n        /* \"#utility.yul\":6853:6946   */\n      tag_265\n        /* \"#utility.yul\":6942:6945   */\n      dup3\n        /* \"#utility.yul\":6853:6946   */\n      tag_183\n      jump\t// in\n    tag_265:\n        /* \"#utility.yul\":6971:6973   */\n      0x20\n        /* \"#utility.yul\":6966:6969   */\n      dup3\n        /* \"#utility.yul\":6962:6974   */\n      add\n        /* \"#utility.yul\":6955:6974   */\n      swap1\n      pop\n        /* \"#utility.yul\":6614:6980   */\n      swap2\n      swap1\n      pop\n      jump\t// out\n        /* \"#utility.yul\":6986:7405   */\n    tag_97:\n        /* \"#utility.yul\":7152:7156   */\n      0x00\n        /* \"#utility.yul\":7190:7192   */\n      0x20\n        /* \"#utility.yul\":7179:7188   */\n      dup3\n        /* \"#utility.yul\":7175:7193   */\n      add\n        /* \"#utility.yul\":7167:7193   */\n      swap1\n      pop\n        /* \"#utility.yul\":7239:7248   */\n      dup2\n        /* \"#utility.yul\":7233:7237   */\n      dup2\n        /* \"#utility.yul\":7229:7249   */\n      sub\n        /* \"#utility.yul\":7225:7226   */\n      0x00\n        /* \"#utility.yul\":7214:7223   */\n      dup4\n        /* \"#utility.yul\":7210:7227   */\n      add\n        /* \"#utility.yul\":7203:7250   */\n      mstore\n        /* \"#utility.yul\":7267:7398   */\n      tag_267\n        /* \"#utility.yul\":7393:7397   */\n      dup2\n        /* \"#utility.yul\":7267:7398   */\n      tag_184\n      jump\t// in\n    tag_267:\n        /* \"#utility.yul\":7259:7398   */\n      swap1\n      pop\n        /* \"#utility.yul\":6986:7405   */\n      swap2\n      swap1\n      pop\n      jump\t// out\n        /* \"#utility.yul\":7411:7580   */\n    tag_185:\n        /* \"#utility.yul\":7551:7572   */\n      0x4e6f207265776172647320746f20636c61696d00000000000000000000000000\n        /* \"#utility.yul\":7547:7548   */\n      0x00\n        /* \"#utility.yul\":7539:7545   */\n      dup3\n        /* \"#utility.yul\":7535:7549   */\n      add\n        /* \"#utility.yul\":7528:7573   */\n      mstore\n        /* \"#utility.yul\":7411:7580   */\n      pop\n      jump\t// out\n        /* \"#utility.yul\":7586:7952   */\n    tag_186:\n        /* \"#utility.yul\":7728:7731   */\n      0x00\n        /* \"#utility.yul\":7749:7816   */\n      tag_270\n        /* \"#utility.yul\":7813:7815   */\n      0x13\n        /* \"#utility.yul\":7808:7811   */\n      dup4\n        /* \"#utility.yul\":7749:7816   */\n      tag_174\n      jump\t// in\n    tag_270:\n        /* \"#utility.yul\":7742:7816   */\n      swap2\n      pop\n        /* \"#utility.yul\":7825:7918   */\n      tag_271\n        /* \"#utility.yul\":7914:7917   */\n      dup3\n        /* \"#utility.yul\":7825:7918   */\n      tag_185\n      jump\t// in\n    tag_271:\n        /* \"#utility.yul\":7943:7945   */\n      0x20\n        /* \"#utility.yul\":7938:7941   */\n      dup3\n        /* \"#utility.yul\":7934:7946   */\n      add\n        /* \"#utility.yul\":7927:7946   */\n      swap1\n      pop\n        /* \"#utility.yul\":7586:7952   */\n      swap2\n      swap1\n      pop\n      jump\t// out\n        /* \"#utility.yul\":7958:8377   */\n    tag_108:\n        /* \"#utility.yul\":8124:8128   */\n      0x00\n        /* \"#utility.yul\":8162:8164   */\n      0x20\n        /* \"#utility.yul\":8151:8160   */\n      dup3\n        /* \"#utility.yul\":8147:8165   */\n      add\n        /* \"#utility.yul\":8139:8165   */\n      swap1\n      pop\n        /* \"#utility.yul\":8211:8220   */\n      dup2\n        /* \"#utility.yul\":8205:8209   */\n      dup2\n        /* \"#utility.yul\":8201:8221   */\n      sub\n        /* \"#utility.yul\":8197:8198   */\n      0x00\n        /* \"#utility.yul\":8186:8195   */\n      dup4\n        /* \"#utility.yul\":8182:8199   */\n      add\n        /* \"#utility.yul\":8175:8222   */\n      mstore\n        /* \"#utility.yul\":8239:8370   */\n      tag_273\n        /* \"#utility.yul\":8365:8369   */\n      dup2\n        /* \"#utility.yul\":8239:8370   */\n      tag_186\n      jump\t// in\n    tag_273:\n        /* \"#utility.yul\":8231:8370   */\n      swap1\n      pop\n        /* \"#utility.yul\":7958:8377   */\n      swap2\n      swap1\n      pop\n      jump\t// out\n        /* \"#utility.yul\":8383:8825   */\n    tag_127:\n        /* \"#utility.yul\":8532:8536   */\n      0x00\n        /* \"#utility.yul\":8570:8572   */\n      0x60\n        /* \"#utility.yul\":8559:8568   */\n      dup3\n        /* \"#utility.yul\":8555:8573   */\n      add\n        /* \"#utility.yul\":8547:8573   */\n      swap1\n      pop\n        /* \"#utility.yul\":8583:8654   */\n      tag_275\n        /* \"#utility.yul\":8651:8652   */\n      0x00\n        /* \"#utility.yul\":8640:8649   */\n      dup4\n        /* \"#utility.yul\":8636:8653   */\n      add\n        /* \"#utility.yul\":8627:8633   */\n      dup7\n        /* \"#utility.yul\":8583:8654   */\n      tag_179\n      jump\t// in\n    tag_275:\n        /* \"#utility.yul\":8664:8736   */\n      tag_276\n        /* \"#utility.yul\":8732:8734   */\n      0x20\n        /* \"#utility.yul\":8721:8730   */\n      dup4\n        /* \"#utility.yul\":8717:8735   */\n      add\n        /* \"#utility.yul\":8708:8714   */\n      dup6\n        /* \"#utility.yul\":8664:8736   */\n      tag_179\n      jump\t// in\n    tag_276:\n        /* \"#utility.yul\":8746:8818   */\n      tag_277\n        /* \"#utility.yul\":8814:8816   */\n      0x40\n        /* \"#utility.yul\":8803:8812   */\n      dup4\n        /* \"#utility.yul\":8799:8817   */\n      add\n        /* \"#utility.yul\":8790:8796   */\n      dup5\n        /* \"#utility.yul\":8746:8818   */\n      tag_166\n      jump\t// in\n    tag_277:\n        /* \"#utility.yul\":8383:8825   */\n      swap5\n      swap4\n      pop\n      pop\n      pop\n      pop\n      jump\t// out\n        /* \"#utility.yul\":8831:9011   */\n    tag_187:\n        /* \"#utility.yul\":8879:8956   */\n      0x4e487b7100000000000000000000000000000000000000000000000000000000\n        /* \"#utility.yul\":8876:8877   */\n      0x00\n        /* \"#utility.yul\":8869:8957   */\n      mstore\n        /* \"#utility.yul\":8976:8980   */\n      0x11\n        /* \"#utility.yul\":8973:8974   */\n      0x04\n        /* \"#utility.yul\":8966:8981   */\n      mstore\n        /* \"#utility.yul\":9000:9004   */\n      0x24\n        /* \"#utility.yul\":8997:8998   */\n      0x00\n        /* \"#utility.yul\":8990:9005   */\n      revert\n        /* \"#utility.yul\":9017:9211   */\n    tag_143:\n        /* \"#utility.yul\":9057:9061   */\n      0x00\n        /* \"#utility.yul\":9077:9097   */\n      tag_280\n        /* \"#utility.yul\":9095:9096   */\n      dup3\n        /* \"#utility.yul\":9077:9097   */\n      tag_165\n      jump\t// in\n    tag_280:\n        /* \"#utility.yul\":9072:9097   */\n      swap2\n      pop\n        /* \"#utility.yul\":9111:9131   */\n      tag_281\n        /* \"#utility.yul\":9129:9130   */\n      dup4\n        /* \"#utility.yul\":9111:9131   */\n      tag_165\n      jump\t// in\n    tag_281:\n        /* \"#utility.yul\":9106:9131   */\n      swap3\n      pop\n        /* \"#utility.yul\":9155:9156   */\n      dup3\n        /* \"#utility.yul\":9152:9153   */\n      dup3\n        /* \"#utility.yul\":9148:9157   */\n      sub\n        /* \"#utility.yul\":9140:9157   */\n      swap1\n      pop\n        /* \"#utility.yul\":9179:9180   */\n      dup2\n        /* \"#utility.yul\":9173:9177   */\n      dup2\n        /* \"#utility.yul\":9170:9181   */\n      gt\n        /* \"#utility.yul\":9167:9204   */\n      iszero\n      tag_282\n      jumpi\n        /* \"#utility.yul\":9184:9202   */\n      tag_283\n      tag_187\n      jump\t// in\n    tag_283:\n        /* \"#utility.yul\":9167:9204   */\n    tag_282:\n        /* \"#utility.yul\":9017:9211   */\n      swap3\n      swap2\n      pop\n      pop\n      jump\t// out\n        /* \"#utility.yul\":9217:9627   */\n    tag_146:\n        /* \"#utility.yul\":9257:9264   */\n      0x00\n        /* \"#utility.yul\":9280:9300   */\n      tag_285\n        /* \"#utility.yul\":9298:9299   */\n      dup3\n        /* \"#utility.yul\":9280:9300   */\n      tag_165\n      jump\t// in\n    tag_285:\n        /* \"#utility.yul\":9275:9300   */\n      swap2\n      pop\n        /* \"#utility.yul\":9314:9334   */\n      tag_286\n        /* \"#utility.yul\":9332:9333   */\n      dup4\n        /* \"#utility.yul\":9314:9334   */\n      tag_165\n      jump\t// in\n    tag_286:\n        /* \"#utility.yul\":9309:9334   */\n      swap3\n      pop\n        /* \"#utility.yul\":9369:9370   */\n      dup3\n        /* \"#utility.yul\":9366:9367   */\n      dup3\n        /* \"#utility.yul\":9362:9371   */\n      mul\n        /* \"#utility.yul\":9391:9421   */\n      tag_287\n        /* \"#utility.yul\":9409:9420   */\n      dup2\n        /* \"#utility.yul\":9391:9421   */\n      tag_165\n      jump\t// in\n    tag_287:\n        /* \"#utility.yul\":9380:9421   */\n      swap2\n      pop\n        /* \"#utility.yul\":9570:9571   */\n      dup3\n        /* \"#utility.yul\":9561:9568   */\n      dup3\n        /* \"#utility.yul\":9557:9572   */\n      div\n        /* \"#utility.yul\":9554:9555   */\n      dup5\n        /* \"#utility.yul\":9551:9573   */\n      eq\n        /* \"#utility.yul\":9531:9532   */\n      dup4\n        /* \"#utility.yul\":9524:9533   */\n      iszero\n        /* \"#utility.yul\":9504:9587   */\n      or\n        /* \"#utility.yul\":9481:9620   */\n      tag_288\n      jumpi\n        /* \"#utility.yul\":9600:9618   */\n      tag_289\n      tag_187\n      jump\t// in\n    tag_289:\n        /* \"#utility.yul\":9481:9620   */\n    tag_288:\n        /* \"#utility.yul\":9265:9627   */\n      pop\n        /* \"#utility.yul\":9217:9627   */\n      swap3\n      swap2\n      pop\n      pop\n      jump\t// out\n        /* \"#utility.yul\":9633:9813   */\n    tag_188:\n        /* \"#utility.yul\":9681:9758   */\n      0x4e487b7100000000000000000000000000000000000000000000000000000000\n        /* \"#utility.yul\":9678:9679   */\n      0x00\n        /* \"#utility.yul\":9671:9759   */\n      mstore\n        /* \"#utility.yul\":9778:9782   */\n      0x12\n        /* \"#utility.yul\":9775:9776   */\n      0x04\n        /* \"#utility.yul\":9768:9783   */\n      mstore\n        /* \"#utility.yul\":9802:9806   */\n      0x24\n        /* \"#utility.yul\":9799:9800   */\n      0x00\n        /* \"#utility.yul\":9792:9807   */\n      revert\n        /* \"#utility.yul\":9819:10004   */\n    tag_149:\n        /* \"#utility.yul\":9859:9860   */\n      0x00\n        /* \"#utility.yul\":9876:9896   */\n      tag_292\n        /* \"#utility.yul\":9894:9895   */\n      dup3\n        /* \"#utility.yul\":9876:9896   */\n      tag_165\n      jump\t// in\n    tag_292:\n        /* \"#utility.yul\":9871:9896   */\n      swap2\n      pop\n        /* \"#utility.yul\":9910:9930   */\n      tag_293\n        /* \"#utility.yul\":9928:9929   */\n      dup4\n        /* \"#utility.yul\":9910:9930   */\n      tag_165\n      jump\t// in\n    tag_293:\n        /* \"#utility.yul\":9905:9930   */\n      swap3\n      pop\n        /* \"#utility.yul\":9949:9950   */\n      dup3\n        /* \"#utility.yul\":9939:9974   */\n      tag_294\n      jumpi\n        /* \"#utility.yul\":9954:9972   */\n      tag_295\n      tag_188\n      jump\t// in\n    tag_295:\n        /* \"#utility.yul\":9939:9974   */\n    tag_294:\n        /* \"#utility.yul\":9996:9997   */\n      dup3\n        /* \"#utility.yul\":9993:9994   */\n      dup3\n        /* \"#utility.yul\":9989:9998   */\n      div\n        /* \"#utility.yul\":9984:9998   */\n      swap1\n      pop\n        /* \"#utility.yul\":9819:10004   */\n      swap3\n      swap2\n      pop\n      pop\n      jump\t// out\n        /* \"#utility.yul\":10010:10201   */\n    tag_152:\n        /* \"#utility.yul\":10050:10053   */\n      0x00\n        /* \"#utility.yul\":10069:10089   */\n      tag_297\n        /* \"#utility.yul\":10087:10088   */\n      dup3\n        /* \"#utility.yul\":10069:10089   */\n      tag_165\n      jump\t// in\n    tag_297:\n        /* \"#utility.yul\":10064:10089   */\n      swap2\n      pop\n        /* \"#utility.yul\":10103:10123   */\n      tag_298\n        /* \"#utility.yul\":10121:10122   */\n      dup4\n        /* \"#utility.yul\":10103:10123   */\n      tag_165\n      jump\t// in\n    tag_298:\n        /* \"#utility.yul\":10098:10123   */\n      swap3\n      pop\n        /* \"#utility.yul\":10146:10147   */\n      dup3\n        /* \"#utility.yul\":10143:10144   */\n      dup3\n        /* \"#utility.yul\":10139:10148   */\n      add\n        /* \"#utility.yul\":10132:10148   */\n      swap1\n      pop\n        /* \"#utility.yul\":10167:10170   */\n      dup1\n        /* \"#utility.yul\":10164:10165   */\n      dup3\n        /* \"#utility.yul\":10161:10171   */\n      gt\n        /* \"#utility.yul\":10158:10194   */\n      iszero\n      tag_299\n      jumpi\n        /* \"#utility.yul\":10174:10192   */\n      tag_300\n      tag_187\n      jump\t// in\n    tag_300:\n        /* \"#utility.yul\":10158:10194   */\n    tag_299:\n        /* \"#utility.yul\":10010:10201   */\n      swap3\n      swap2\n      pop\n      pop\n      jump\t// out\n        /* \"#utility.yul\":10207:10388   */\n    tag_189:\n        /* \"#utility.yul\":10347:10380   */\n      0x5265656e7472616e637947756172643a207265656e7472616e742063616c6c00\n        /* \"#utility.yul\":10343:10344   */\n      0x00\n        /* \"#utility.yul\":10335:10341   */\n      dup3\n        /* \"#utility.yul\":10331:10345   */\n      add\n        /* \"#utility.yul\":10324:10381   */\n      mstore\n        /* \"#utility.yul\":10207:10388   */\n      pop\n      jump\t// out\n        /* \"#utility.yul\":10394:10760   */\n    tag_190:\n        /* \"#utility.yul\":10536:10539   */\n      0x00\n        /* \"#utility.yul\":10557:10624   */\n      tag_303\n        /* \"#utility.yul\":10621:10623   */\n      0x1f\n        /* \"#utility.yul\":10616:10619   */\n      dup4\n        /* \"#utility.yul\":10557:10624   */\n      tag_174\n      jump\t// in\n    tag_303:\n        /* \"#utility.yul\":10550:10624   */\n      swap2\n      pop\n        /* \"#utility.yul\":10633:10726   */\n      tag_304\n        /* \"#utility.yul\":10722:10725   */\n      dup3\n        /* \"#utility.yul\":10633:10726   */\n      tag_189\n      jump\t// in\n    tag_304:\n        /* \"#utility.yul\":10751:10753   */\n      0x20\n        /* \"#utility.yul\":10746:10749   */\n      dup3\n        /* \"#utility.yul\":10742:10754   */\n      add\n        /* \"#utility.yul\":10735:10754   */\n      swap1\n      pop\n        /* \"#utility.yul\":10394:10760   */\n      swap2\n      swap1\n      pop\n      jump\t// out\n        /* \"#utility.yul\":10766:11185   */\n    tag_156:\n        /* \"#utility.yul\":10932:10936   */\n      0x00\n        /* \"#utility.yul\":10970:10972   */\n      0x20\n        /* \"#utility.yul\":10959:10968   */\n      dup3\n        /* \"#utility.yul\":10955:10973   */\n      add\n        /* \"#utility.yul\":10947:10973   */\n      swap1\n      pop\n        /* \"#utility.yul\":11019:11028   */\n      dup2\n        /* \"#utility.yul\":11013:11017   */\n      dup2\n        /* \"#utility.yul\":11009:11029   */\n      sub\n        /* \"#utility.yul\":11005:11006   */\n      0x00\n        /* \"#utility.yul\":10994:11003   */\n      dup4\n        /* \"#utility.yul\":10990:11007   */\n      add\n        /* \"#utility.yul\":10983:11030   */\n      mstore\n        /* \"#utility.yul\":11047:11178   */\n      tag_306\n        /* \"#utility.yul\":11173:11177   */\n      dup2\n        /* \"#utility.yul\":11047:11178   */\n      tag_190\n      jump\t// in\n    tag_306:\n        /* \"#utility.yul\":11039:11178   */\n      swap1\n      pop\n        /* \"#utility.yul\":10766:11185   */\n      swap2\n      swap1\n      pop\n      jump\t// out\n\n    auxdata: 0xa26469706673582212209ec276cfc151374ee5f421fd5ace5652653d419b5b9b932925f775594bbebba864736f6c63430008170033\n}\n",
				"bytecode": {
					"linkReferences": {},
					"object": "608060405234801562000010575f80fd5b506040516200157e3803806200157e83398181016040528101906200003691906200012a565b60015f819055508160015f6101000a81548173ffffffffffffffffffffffffffffffffffffffff021916908373ffffffffffffffffffffffffffffffffffffffff1602179055508060025f6101000a81548173ffffffffffffffffffffffffffffffffffffffff021916908373ffffffffffffffffffffffffffffffffffffffff16021790555050506200016f565b5f80fd5b5f73ffffffffffffffffffffffffffffffffffffffff82169050919050565b5f620000f482620000c9565b9050919050565b6200010681620000e8565b811462000111575f80fd5b50565b5f815190506200012481620000fb565b92915050565b5f8060408385031215620001435762000142620000c5565b5b5f620001528582860162000114565b9250506020620001658582860162000114565b9150509250929050565b611401806200017d5f395ff3fe608060405234801561000f575f80fd5b50600436106100cc575f3560e01c80636374cc001161008a578063adca9b7211610064578063adca9b721461020e578063c8f33c911461022c578063cd3daf9d1461024a578063df136d6514610268576100cc565b80636374cc00146101a45780638b876347146101c2578063a694fc3a146101f2576100cc565b80628cc262146100d05780630700037d146101005780630a57336a146101305780633d18b9121461014c5780635997bb37146101565780636021726714610174575b5f80fd5b6100ea60048036038101906100e59190610e92565b610286565b6040516100f79190610ed5565b60405180910390f35b61011a60048036038101906101159190610e92565b61039d565b6040516101279190610ed5565b60405180910390f35b61014a60048036038101906101459190610f18565b6103b2565b005b6101546106fc565b005b61015e61099d565b60405161016b9190610ed5565b60405180910390f35b61018e60048036038101906101899190610e92565b6109a9565b60405161019b9190610ed5565b60405180910390f35b6101ac6109be565b6040516101b99190610f9e565b60405180910390f35b6101dc60048036038101906101d79190610e92565b6109e3565b6040516101e99190610ed5565b60405180910390f35b61020c60048036038101906102079190610f18565b6109f8565b005b610216610cc4565b6040516102239190610f9e565b60405180910390f35b610234610ce9565b6040516102419190610ed5565b60405180910390f35b610252610cef565b60405161025f9190610ed5565b60405180910390f35b610270610d84565b60405161027d9190610ed5565b60405180910390f35b5f61039660075f8473ffffffffffffffffffffffffffffffffffffffff1673ffffffffffffffffffffffffffffffffffffffff1681526020019081526020015f2054610388670de0b6b3a764000061037a61032e60085f8973ffffffffffffffffffffffffffffffffffffffff1673ffffffffffffffffffffffffffffffffffffffff1681526020019081526020015f2054610320610cef565b610d8a90919063ffffffff16565b60065f8973ffffffffffffffffffffffffffffffffffffffff1673ffffffffffffffffffffffffffffffffffffffff1681526020019081526020015f2054610d9f90919063ffffffff16565b610db490919063ffffffff16565b610dc990919063ffffffff16565b9050919050565b6007602052805f5260405f205f915090505481565b6103ba610dde565b336103c3610cef565b600481905550426005819055506103d981610286565b60075f8373ffffffffffffffffffffffffffffffffffffffff1673ffffffffffffffffffffffffffffffffffffffff1681526020019081526020015f208190555060045460085f8373ffffffffffffffffffffffffffffffffffffffff1673ffffffffffffffffffffffffffffffffffffffff1681526020019081526020015f20819055505f82116104a0576040517f08c379a000000000000000000000000000000000000000000000000000000000815260040161049790611011565b60405180910390fd5b8160065f3373ffffffffffffffffffffffffffffffffffffffff1673ffffffffffffffffffffffffffffffffffffffff1681526020019081526020015f20541015610520576040517f08c379a000000000000000000000000000000000000000000000000000000000815260040161051790611079565b60405180910390fd5b61053582600354610d8a90919063ffffffff16565b60038190555061058b8260065f3373ffffffffffffffffffffffffffffffffffffffff1673ffffffffffffffffffffffffffffffffffffffff1681526020019081526020015f2054610d8a90919063ffffffff16565b60065f3373ffffffffffffffffffffffffffffffffffffffff1673ffffffffffffffffffffffffffffffffffffffff1681526020019081526020015f2081905550813373ffffffffffffffffffffffffffffffffffffffff167f7084f5476618d8e60b11ef0d7d3f06914655adb8793e28ff7f018d4c76d505d560405160405180910390a35f60015f9054906101000a900473ffffffffffffffffffffffffffffffffffffffff1673ffffffffffffffffffffffffffffffffffffffff1663a9059cbb33856040518363ffffffff1660e01b815260040161066d9291906110a6565b6020604051808303815f875af1158015610689573d5f803e3d5ffd5b505050506040513d601f19601f820116820180604052508101906106ad9190611102565b9050806106ef576040517f08c379a00000000000000000000000000000000000000000000000000000000081526004016106e690611177565b60405180910390fd5b50506106f9610e2b565b50565b610704610dde565b3361070d610cef565b6004819055504260058190555061072381610286565b60075f8373ffffffffffffffffffffffffffffffffffffffff1673ffffffffffffffffffffffffffffffffffffffff1681526020019081526020015f208190555060045460085f8373ffffffffffffffffffffffffffffffffffffffff1673ffffffffffffffffffffffffffffffffffffffff1681526020019081526020015f20819055505f60075f3373ffffffffffffffffffffffffffffffffffffffff1673ffffffffffffffffffffffffffffffffffffffff1681526020019081526020015f205490505f811161082b576040517f08c379a0000000000000000000000000000000000000000000000000000000008152600401610822906111df565b60405180910390fd5b5f60075f3373ffffffffffffffffffffffffffffffffffffffff1673ffffffffffffffffffffffffffffffffffffffff1681526020019081526020015f2081905550803373ffffffffffffffffffffffffffffffffffffffff167ffc30cddea38e2bf4d6ea7d3f9ed3b6ad7f176419f4963bd81318067a4aee73fe60405160405180910390a35f60025f9054906101000a900473ffffffffffffffffffffffffffffffffffffffff1673ffffffffffffffffffffffffffffffffffffffff1663a9059cbb33846040518363ffffffff1660e01b815260040161090e9291906110a6565b6020604051808303815f875af115801561092a573d5f803e3d5ffd5b505050506040513d601f19601f8201168201806040525081019061094e9190611102565b905080610990576040517f08c379a000000000000000000000000000000000000000000000000000000000815260040161098790611177565b60405180910390fd5b50505061099b610e2b565b565b670de0b6b3a764000081565b6006602052805f5260405f205f915090505481565b60025f9054906101000a900473ffffffffffffffffffffffffffffffffffffffff1681565b6008602052805f5260405f205f915090505481565b610a00610dde565b33610a09610cef565b60048190555042600581905550610a1f81610286565b60075f8373ffffffffffffffffffffffffffffffffffffffff1673ffffffffffffffffffffffffffffffffffffffff1681526020019081526020015f208190555060045460085f8373ffffffffffffffffffffffffffffffffffffffff1673ffffffffffffffffffffffffffffffffffffffff1681526020019081526020015f20819055505f8211610ae6576040517f08c379a0000000000000000000000000000000000000000000000000000000008152600401610add90611011565b60405180910390fd5b610afb82600354610dc990919063ffffffff16565b600381905550610b518260065f3373ffffffffffffffffffffffffffffffffffffffff1673ffffffffffffffffffffffffffffffffffffffff1681526020019081526020015f2054610dc990919063ffffffff16565b60065f3373ffffffffffffffffffffffffffffffffffffffff1673ffffffffffffffffffffffffffffffffffffffff1681526020019081526020015f2081905550813373ffffffffffffffffffffffffffffffffffffffff167f9e71bc8eea02a63969f509818f2dafb9254532904319f9dbda79b67bd34a5f3d60405160405180910390a35f60015f9054906101000a900473ffffffffffffffffffffffffffffffffffffffff1673ffffffffffffffffffffffffffffffffffffffff166323b872dd3330866040518463ffffffff1660e01b8152600401610c35939291906111fd565b6020604051808303815f875af1158015610c51573d5f803e3d5ffd5b505050506040513d601f19601f82011682018060405250810190610c759190611102565b905080610cb7576040517f08c379a0000000000000000000000000000000000000000000000000000000008152600401610cae90611177565b60405180910390fd5b5050610cc1610e2b565b50565b60015f9054906101000a900473ffffffffffffffffffffffffffffffffffffffff1681565b60055481565b5f8060035403610d03576004549050610d81565b5f610d1960055442610d8a90919063ffffffff16565b90505f610d3782670de0b6b3a7640000610d9f90919063ffffffff16565b9050610d7c610d6b600354610d5d670de0b6b3a764000085610d9f90919063ffffffff16565b610db490919063ffffffff16565b600454610dc990919063ffffffff16565b925050505b90565b60045481565b5f8183610d97919061125f565b905092915050565b5f8183610dac9190611292565b905092915050565b5f8183610dc19190611300565b905092915050565b5f8183610dd69190611330565b905092915050565b60025f5403610e22576040517f08c379a0000000000000000000000000000000000000000000000000000000008152600401610e19906113ad565b60405180910390fd5b60025f81905550565b60015f81905550565b5f80fd5b5f73ffffffffffffffffffffffffffffffffffffffff82169050919050565b5f610e6182610e38565b9050919050565b610e7181610e57565b8114610e7b575f80fd5b50565b5f81359050610e8c81610e68565b92915050565b5f60208284031215610ea757610ea6610e34565b5b5f610eb484828501610e7e565b91505092915050565b5f819050919050565b610ecf81610ebd565b82525050565b5f602082019050610ee85f830184610ec6565b92915050565b610ef781610ebd565b8114610f01575f80fd5b50565b5f81359050610f1281610eee565b92915050565b5f60208284031215610f2d57610f2c610e34565b5b5f610f3a84828501610f04565b91505092915050565b5f819050919050565b5f610f66610f61610f5c84610e38565b610f43565b610e38565b9050919050565b5f610f7782610f4c565b9050919050565b5f610f8882610f6d565b9050919050565b610f9881610f7e565b82525050565b5f602082019050610fb15f830184610f8f565b92915050565b5f82825260208201905092915050565b7f416d6f756e74206d7573742062652067726561746572207468616e207a65726f5f82015250565b5f610ffb602083610fb7565b915061100682610fc7565b602082019050919050565b5f6020820190508181035f83015261102881610fef565b9050919050565b7f5374616b656420616d6f756e74206e6f7420656e6f75676800000000000000005f82015250565b5f611063601883610fb7565b915061106e8261102f565b602082019050919050565b5f6020820190508181035f83015261109081611057565b9050919050565b6110a081610e57565b82525050565b5f6040820190506110b95f830185611097565b6110c66020830184610ec6565b9392505050565b5f8115159050919050565b6110e1816110cd565b81146110eb575f80fd5b50565b5f815190506110fc816110d8565b92915050565b5f6020828403121561111757611116610e34565b5b5f611124848285016110ee565b91505092915050565b7f5472616e73666572204661696c656400000000000000000000000000000000005f82015250565b5f611161600f83610fb7565b915061116c8261112d565b602082019050919050565b5f6020820190508181035f83015261118e81611155565b9050919050565b7f4e6f207265776172647320746f20636c61696d000000000000000000000000005f82015250565b5f6111c9601383610fb7565b91506111d482611195565b602082019050919050565b5f6020820190508181035f8301526111f6816111bd565b9050919050565b5f6060820190506112105f830186611097565b61121d6020830185611097565b61122a6040830184610ec6565b949350505050565b7f4e487b71000000000000000000000000000000000000000000000000000000005f52601160045260245ffd5b5f61126982610ebd565b915061127483610ebd565b925082820390508181111561128c5761128b611232565b5b92915050565b5f61129c82610ebd565b91506112a783610ebd565b92508282026112b581610ebd565b915082820484148315176112cc576112cb611232565b5b5092915050565b7f4e487b71000000000000000000000000000000000000000000000000000000005f52601260045260245ffd5b5f61130a82610ebd565b915061131583610ebd565b925082611325576113246112d3565b5b828204905092915050565b5f61133a82610ebd565b915061134583610ebd565b925082820190508082111561135d5761135c611232565b5b92915050565b7f5265656e7472616e637947756172643a207265656e7472616e742063616c6c005f82015250565b5f611397601f83610fb7565b91506113a282611363565b602082019050919050565b5f6020820190508181035f8301526113c48161138b565b905091905056fea26469706673582212209ec276cfc151374ee5f421fd5ace5652653d419b5b9b932925f775594bbebba864736f6c63430008170033",
					"opcodes": "PUSH1 0x80 PUSH1 0x40 MSTORE CALLVALUE DUP1 ISZERO PUSH3 0x10 JUMPI PUSH0 DUP1 REVERT JUMPDEST POP PUSH1 0x40 MLOAD PUSH3 0x157E CODESIZE SUB DUP1 PUSH3 0x157E DUP4 CODECOPY DUP2 DUP2 ADD PUSH1 0x40 MSTORE DUP2 ADD SWAP1 PUSH3 0x36 SWAP2 SWAP1 PUSH3 0x12A JUMP JUMPDEST PUSH1 0x1 PUSH0 DUP2 SWAP1 SSTORE POP DUP2 PUSH1 0x1 PUSH0 PUSH2 0x100 EXP DUP2 SLOAD DUP2 PUSH20 0xFFFFFFFFFFFFFFFFFFFFFFFFFFFFFFFFFFFFFFFF MUL NOT AND SWAP1 DUP4 PUSH20 0xFFFFFFFFFFFFFFFFFFFFFFFFFFFFFFFFFFFFFFFF AND MUL OR SWAP1 SSTORE POP DUP1 PUSH1 0x2 PUSH0 PUSH2 0x100 EXP DUP2 SLOAD DUP2 PUSH20 0xFFFFFFFFFFFFFFFFFFFFFFFFFFFFFFFFFFFFFFFF MUL NOT AND SWAP1 DUP4 PUSH20 0xFFFFFFFFFFFFFFFFFFFFFFFFFFFFFFFFFFFFFFFF AND MUL OR SWAP1 SSTORE POP POP POP PUSH3 0x16F JUMP JUMPDEST PUSH0 DUP1 REVERT JUMPDEST PUSH0 PUSH20 0xFFFFFFFFFFFFFFFFFFFFFFFFFFFFFFFFFFFFFFFF DUP3 AND SWAP1 POP SWAP2 SWAP1 POP JUMP JUMPDEST PUSH0 PUSH3 0xF4 DUP3 PUSH3 0xC9 JUMP JUMPDEST SWAP1 POP SWAP2 SWAP1 POP JUMP JUMPDEST PUSH3 0x106 DUP2 PUSH3 0xE8 JUMP JUMPDEST DUP2 EQ PUSH3 0x111 JUMPI PUSH0 DUP1 REVERT JUMPDEST POP JUMP JUMPDEST PUSH0 DUP2 MLOAD SWAP1 POP PUSH3 0x124 DUP2 PUSH3 0xFB JUMP JUMPDEST SWAP3 SWAP2 POP POP JUMP JUMPDEST PUSH0 DUP1 PUSH1 0x40 DUP4 DUP6 SUB SLT ISZERO PUSH3 0x143 JUMPI PUSH3 0x142 PUSH3 0xC5 JUMP JUMPDEST JUMPDEST PUSH0 PUSH3 0x152 DUP6 DUP3 DUP7 ADD PUSH3 0x114 JUMP JUMPDEST SWAP3 POP POP PUSH1 0x20 PUSH3 0x165 DUP6 DUP3 DUP7 ADD PUSH3 0x114 JUMP JUMPDEST SWAP2 POP POP SWAP3 POP SWAP3 SWAP1 POP JUMP JUMPDEST PUSH2 0x1401 DUP1 PUSH3 0x17D PUSH0 CODECOPY PUSH0 RETURN INVALID PUSH1 0x80 PUSH1 0x40 MSTORE CALLVALUE DUP1 ISZERO PUSH2 0xF JUMPI PUSH0 DUP1 REVERT JUMPDEST POP PUSH1 0x4 CALLDATASIZE LT PUSH2 0xCC JUMPI PUSH0 CALLDATALOAD PUSH1 0xE0 SHR DUP1 PUSH4 0x6374CC00 GT PUSH2 0x8A JUMPI DUP1 PUSH4 0xADCA9B72 GT PUSH2 0x64 JUMPI DUP1 PUSH4 0xADCA9B72 EQ PUSH2 0x20E JUMPI DUP1 PUSH4 0xC8F33C91 EQ PUSH2 0x22C JUMPI DUP1 PUSH4 0xCD3DAF9D EQ PUSH2 0x24A JUMPI DUP1 PUSH4 0xDF136D65 EQ PUSH2 0x268 JUMPI PUSH2 0xCC JUMP JUMPDEST DUP1 PUSH4 0x6374CC00 EQ PUSH2 0x1A4 JUMPI DUP1 PUSH4 0x8B876347 EQ PUSH2 0x1C2 JUMPI DUP1 PUSH4 0xA694FC3A EQ PUSH2 0x1F2 JUMPI PUSH2 0xCC JUMP JUMPDEST DUP1 PUSH3 0x8CC262 EQ PUSH2 0xD0 JUMPI DUP1 PUSH4 0x700037D EQ PUSH2 0x100 JUMPI DUP1 PUSH4 0xA57336A EQ PUSH2 0x130 JUMPI DUP1 PUSH4 0x3D18B912 EQ PUSH2 0x14C JUMPI DUP1 PUSH4 0x5997BB37 EQ PUSH2 0x156 JUMPI DUP1 PUSH4 0x60217267 EQ PUSH2 0x174 JUMPI JUMPDEST PUSH0 DUP1 REVERT JUMPDEST PUSH2 0xEA PUSH1 0x4 DUP1 CALLDATASIZE SUB DUP2 ADD SWAP1 PUSH2 0xE5 SWAP2 SWAP1 PUSH2 0xE92 JUMP JUMPDEST PUSH2 0x286 JUMP JUMPDEST PUSH1 0x40 MLOAD PUSH2 0xF7 SWAP2 SWAP1 PUSH2 0xED5 JUMP JUMPDEST PUSH1 0x40 MLOAD DUP1 SWAP2 SUB SWAP1 RETURN JUMPDEST PUSH2 0x11A PUSH1 0x4 DUP1 CALLDATASIZE SUB DUP2 ADD SWAP1 PUSH2 0x115 SWAP2 SWAP1 PUSH2 0xE92 JUMP JUMPDEST PUSH2 0x39D JUMP JUMPDEST PUSH1 0x40 MLOAD PUSH2 0x127 SWAP2 SWAP1 PUSH2 0xED5 JUMP JUMPDEST PUSH1 0x40 MLOAD DUP1 SWAP2 SUB SWAP1 RETURN JUMPDEST PUSH2 0x14A PUSH1 0x4 DUP1 CALLDATASIZE SUB DUP2 ADD SWAP1 PUSH2 0x145 SWAP2 SWAP1 PUSH2 0xF18 JUMP JUMPDEST PUSH2 0x3B2 JUMP JUMPDEST STOP JUMPDEST PUSH2 0x154 PUSH2 0x6FC JUMP JUMPDEST STOP JUMPDEST PUSH2 0x15E PUSH2 0x99D JUMP JUMPDEST PUSH1 0x40 MLOAD PUSH2 0x16B SWAP2 SWAP1 PUSH2 0xED5 JUMP JUMPDEST PUSH1 0x40 MLOAD DUP1 SWAP2 SUB SWAP1 RETURN JUMPDEST PUSH2 0x18E PUSH1 0x4 DUP1 CALLDATASIZE SUB DUP2 ADD SWAP1 PUSH2 0x189 SWAP2 SWAP1 PUSH2 0xE92 JUMP JUMPDEST PUSH2 0x9A9 JUMP JUMPDEST PUSH1 0x40 MLOAD PUSH2 0x19B SWAP2 SWAP1 PUSH2 0xED5 JUMP JUMPDEST PUSH1 0x40 MLOAD DUP1 SWAP2 SUB SWAP1 RETURN JUMPDEST PUSH2 0x1AC PUSH2 0x9BE JUMP JUMPDEST PUSH1 0x40 MLOAD PUSH2 0x1B9 SWAP2 SWAP1 PUSH2 0xF9E JUMP JUMPDEST PUSH1 0x40 MLOAD DUP1 SWAP2 SUB SWAP1 RETURN JUMPDEST PUSH2 0x1DC PUSH1 0x4 DUP1 CALLDATASIZE SUB DUP2 ADD SWAP1 PUSH2 0x1D7 SWAP2 SWAP1 PUSH2 0xE92 JUMP JUMPDEST PUSH2 0x9E3 JUMP JUMPDEST PUSH1 0x40 MLOAD PUSH2 0x1E9 SWAP2 SWAP1 PUSH2 0xED5 JUMP JUMPDEST PUSH1 0x40 MLOAD DUP1 SWAP2 SUB SWAP1 RETURN JUMPDEST PUSH2 0x20C PUSH1 0x4 DUP1 CALLDATASIZE SUB DUP2 ADD SWAP1 PUSH2 0x207 SWAP2 SWAP1 PUSH2 0xF18 JUMP JUMPDEST PUSH2 0x9F8 JUMP JUMPDEST STOP JUMPDEST PUSH2 0x216 PUSH2 0xCC4 JUMP JUMPDEST PUSH1 0x40 MLOAD PUSH2 0x223 SWAP2 SWAP1 PUSH2 0xF9E JUMP JUMPDEST PUSH1 0x40 MLOAD DUP1 SWAP2 SUB SWAP1 RETURN JUMPDEST PUSH2 0x234 PUSH2 0xCE9 JUMP JUMPDEST PUSH1 0x40 MLOAD PUSH2 0x241 SWAP2 SWAP1 PUSH2 0xED5 JUMP JUMPDEST PUSH1 0x40 MLOAD DUP1 SWAP2 SUB SWAP1 RETURN JUMPDEST PUSH2 0x252 PUSH2 0xCEF JUMP JUMPDEST PUSH1 0x40 MLOAD PUSH2 0x25F SWAP2 SWAP1 PUSH2 0xED5 JUMP JUMPDEST PUSH1 0x40 MLOAD DUP1 SWAP2 SUB SWAP1 RETURN JUMPDEST PUSH2 0x270 PUSH2 0xD84 JUMP JUMPDEST PUSH1 0x40 MLOAD PUSH2 0x27D SWAP2 SWAP1 PUSH2 0xED5 JUMP JUMPDEST PUSH1 0x40 MLOAD DUP1 SWAP2 SUB SWAP1 RETURN JUMPDEST PUSH0 PUSH2 0x396 PUSH1 0x7 PUSH0 DUP5 PUSH20 0xFFFFFFFFFFFFFFFFFFFFFFFFFFFFFFFFFFFFFFFF AND PUSH20 0xFFFFFFFFFFFFFFFFFFFFFFFFFFFFFFFFFFFFFFFF AND DUP2 MSTORE PUSH1 0x20 ADD SWAP1 DUP2 MSTORE PUSH1 0x20 ADD PUSH0 KECCAK256 SLOAD PUSH2 0x388 PUSH8 0xDE0B6B3A7640000 PUSH2 0x37A PUSH2 0x32E PUSH1 0x8 PUSH0 DUP10 PUSH20 0xFFFFFFFFFFFFFFFFFFFFFFFFFFFFFFFFFFFFFFFF AND PUSH20 0xFFFFFFFFFFFFFFFFFFFFFFFFFFFFFFFFFFFFFFFF AND DUP2 MSTORE PUSH1 0x20 ADD SWAP1 DUP2 MSTORE PUSH1 0x20 ADD PUSH0 KECCAK256 SLOAD PUSH2 0x320 PUSH2 0xCEF JUMP JUMPDEST PUSH2 0xD8A SWAP1 SWAP2 SWAP1 PUSH4 0xFFFFFFFF AND JUMP JUMPDEST PUSH1 0x6 PUSH0 DUP10 PUSH20 0xFFFFFFFFFFFFFFFFFFFFFFFFFFFFFFFFFFFFFFFF AND PUSH20 0xFFFFFFFFFFFFFFFFFFFFFFFFFFFFFFFFFFFFFFFF AND DUP2 MSTORE PUSH1 0x20 ADD SWAP1 DUP2 MSTORE PUSH1 0x20 ADD PUSH0 KECCAK256 SLOAD PUSH2 0xD9F SWAP1 SWAP2 SWAP1 PUSH4 0xFFFFFFFF AND JUMP JUMPDEST PUSH2 0xDB4 SWAP1 SWAP2 SWAP1 PUSH4 0xFFFFFFFF AND JUMP JUMPDEST PUSH2 0xDC9 SWAP1 SWAP2 SWAP1 PUSH4 0xFFFFFFFF AND JUMP JUMPDEST SWAP1 POP SWAP2 SWAP1 POP JUMP JUMPDEST PUSH1 0x7 PUSH1 0x20 MSTORE DUP1 PUSH0 MSTORE PUSH1 0x40 PUSH0 KECCAK256 PUSH0 SWAP2 POP SWAP1 POP SLOAD DUP2 JUMP JUMPDEST PUSH2 0x3BA PUSH2 0xDDE JUMP JUMPDEST CALLER PUSH2 0x3C3 PUSH2 0xCEF JUMP JUMPDEST PUSH1 0x4 DUP2 SWAP1 SSTORE POP TIMESTAMP PUSH1 0x5 DUP2 SWAP1 SSTORE POP PUSH2 0x3D9 DUP2 PUSH2 0x286 JUMP JUMPDEST PUSH1 0x7 PUSH0 DUP4 PUSH20 0xFFFFFFFFFFFFFFFFFFFFFFFFFFFFFFFFFFFFFFFF AND PUSH20 0xFFFFFFFFFFFFFFFFFFFFFFFFFFFFFFFFFFFFFFFF AND DUP2 MSTORE PUSH1 0x20 ADD SWAP1 DUP2 MSTORE PUSH1 0x20 ADD PUSH0 KECCAK256 DUP2 SWAP1 SSTORE POP PUSH1 0x4 SLOAD PUSH1 0x8 PUSH0 DUP4 PUSH20 0xFFFFFFFFFFFFFFFFFFFFFFFFFFFFFFFFFFFFFFFF AND PUSH20 0xFFFFFFFFFFFFFFFFFFFFFFFFFFFFFFFFFFFFFFFF AND DUP2 MSTORE PUSH1 0x20 ADD SWAP1 DUP2 MSTORE PUSH1 0x20 ADD PUSH0 KECCAK256 DUP2 SWAP1 SSTORE POP PUSH0 DUP3 GT PUSH2 0x4A0 JUMPI PUSH1 0x40 MLOAD PUSH32 0x8C379A000000000000000000000000000000000000000000000000000000000 DUP2 MSTORE PUSH1 0x4 ADD PUSH2 0x497 SWAP1 PUSH2 0x1011 JUMP JUMPDEST PUSH1 0x40 MLOAD DUP1 SWAP2 SUB SWAP1 REVERT JUMPDEST DUP2 PUSH1 0x6 PUSH0 CALLER PUSH20 0xFFFFFFFFFFFFFFFFFFFFFFFFFFFFFFFFFFFFFFFF AND PUSH20 0xFFFFFFFFFFFFFFFFFFFFFFFFFFFFFFFFFFFFFFFF AND DUP2 MSTORE PUSH1 0x20 ADD SWAP1 DUP2 MSTORE PUSH1 0x20 ADD PUSH0 KECCAK256 SLOAD LT ISZERO PUSH2 0x520 JUMPI PUSH1 0x40 MLOAD PUSH32 0x8C379A000000000000000000000000000000000000000000000000000000000 DUP2 MSTORE PUSH1 0x4 ADD PUSH2 0x517 SWAP1 PUSH2 0x1079 JUMP JUMPDEST PUSH1 0x40 MLOAD DUP1 SWAP2 SUB SWAP1 REVERT JUMPDEST PUSH2 0x535 DUP3 PUSH1 0x3 SLOAD PUSH2 0xD8A SWAP1 SWAP2 SWAP1 PUSH4 0xFFFFFFFF AND JUMP JUMPDEST PUSH1 0x3 DUP2 SWAP1 SSTORE POP PUSH2 0x58B DUP3 PUSH1 0x6 PUSH0 CALLER PUSH20 0xFFFFFFFFFFFFFFFFFFFFFFFFFFFFFFFFFFFFFFFF AND PUSH20 0xFFFFFFFFFFFFFFFFFFFFFFFFFFFFFFFFFFFFFFFF AND DUP2 MSTORE PUSH1 0x20 ADD SWAP1 DUP2 MSTORE PUSH1 0x20 ADD PUSH0 KECCAK256 SLOAD PUSH2 0xD8A SWAP1 SWAP2 SWAP1 PUSH4 0xFFFFFFFF AND JUMP JUMPDEST PUSH1 0x6 PUSH0 CALLER PUSH20 0xFFFFFFFFFFFFFFFFFFFFFFFFFFFFFFFFFFFFFFFF AND PUSH20 0xFFFFFFFFFFFFFFFFFFFFFFFFFFFFFFFFFFFFFFFF AND DUP2 MSTORE PUSH1 0x20 ADD SWAP1 DUP2 MSTORE PUSH1 0x20 ADD PUSH0 KECCAK256 DUP2 SWAP1 SSTORE POP DUP2 CALLER PUSH20 0xFFFFFFFFFFFFFFFFFFFFFFFFFFFFFFFFFFFFFFFF AND PUSH32 0x7084F5476618D8E60B11EF0D7D3F06914655ADB8793E28FF7F018D4C76D505D5 PUSH1 0x40 MLOAD PUSH1 0x40 MLOAD DUP1 SWAP2 SUB SWAP1 LOG3 PUSH0 PUSH1 0x1 PUSH0 SWAP1 SLOAD SWAP1 PUSH2 0x100 EXP SWAP1 DIV PUSH20 0xFFFFFFFFFFFFFFFFFFFFFFFFFFFFFFFFFFFFFFFF AND PUSH20 0xFFFFFFFFFFFFFFFFFFFFFFFFFFFFFFFFFFFFFFFF AND PUSH4 0xA9059CBB CALLER DUP6 PUSH1 0x40 MLOAD DUP4 PUSH4 0xFFFFFFFF AND PUSH1 0xE0 SHL DUP2 MSTORE PUSH1 0x4 ADD PUSH2 0x66D SWAP3 SWAP2 SWAP1 PUSH2 0x10A6 JUMP JUMPDEST PUSH1 0x20 PUSH1 0x40 MLOAD DUP1 DUP4 SUB DUP2 PUSH0 DUP8 GAS CALL ISZERO DUP1 ISZERO PUSH2 0x689 JUMPI RETURNDATASIZE PUSH0 DUP1 RETURNDATACOPY RETURNDATASIZE PUSH0 REVERT JUMPDEST POP POP POP POP PUSH1 0x40 MLOAD RETURNDATASIZE PUSH1 0x1F NOT PUSH1 0x1F DUP3 ADD AND DUP3 ADD DUP1 PUSH1 0x40 MSTORE POP DUP2 ADD SWAP1 PUSH2 0x6AD SWAP2 SWAP1 PUSH2 0x1102 JUMP JUMPDEST SWAP1 POP DUP1 PUSH2 0x6EF JUMPI PUSH1 0x40 MLOAD PUSH32 0x8C379A000000000000000000000000000000000000000000000000000000000 DUP2 MSTORE PUSH1 0x4 ADD PUSH2 0x6E6 SWAP1 PUSH2 0x1177 JUMP JUMPDEST PUSH1 0x40 MLOAD DUP1 SWAP2 SUB SWAP1 REVERT JUMPDEST POP POP PUSH2 0x6F9 PUSH2 0xE2B JUMP JUMPDEST POP JUMP JUMPDEST PUSH2 0x704 PUSH2 0xDDE JUMP JUMPDEST CALLER PUSH2 0x70D PUSH2 0xCEF JUMP JUMPDEST PUSH1 0x4 DUP2 SWAP1 SSTORE POP TIMESTAMP PUSH1 0x5 DUP2 SWAP1 SSTORE POP PUSH2 0x723 DUP2 PUSH2 0x286 JUMP JUMPDEST PUSH1 0x7 PUSH0 DUP4 PUSH20 0xFFFFFFFFFFFFFFFFFFFFFFFFFFFFFFFFFFFFFFFF AND PUSH20 0xFFFFFFFFFFFFFFFFFFFFFFFFFFFFFFFFFFFFFFFF AND DUP2 MSTORE PUSH1 0x20 ADD SWAP1 DUP2 MSTORE PUSH1 0x20 ADD PUSH0 KECCAK256 DUP2 SWAP1 SSTORE POP PUSH1 0x4 SLOAD PUSH1 0x8 PUSH0 DUP4 PUSH20 0xFFFFFFFFFFFFFFFFFFFFFFFFFFFFFFFFFFFFFFFF AND PUSH20 0xFFFFFFFFFFFFFFFFFFFFFFFFFFFFFFFFFFFFFFFF AND DUP2 MSTORE PUSH1 0x20 ADD SWAP1 DUP2 MSTORE PUSH1 0x20 ADD PUSH0 KECCAK256 DUP2 SWAP1 SSTORE POP PUSH0 PUSH1 0x7 PUSH0 CALLER PUSH20 0xFFFFFFFFFFFFFFFFFFFFFFFFFFFFFFFFFFFFFFFF AND PUSH20 0xFFFFFFFFFFFFFFFFFFFFFFFFFFFFFFFFFFFFFFFF AND DUP2 MSTORE PUSH1 0x20 ADD SWAP1 DUP2 MSTORE PUSH1 0x20 ADD PUSH0 KECCAK256 SLOAD SWAP1 POP PUSH0 DUP2 GT PUSH2 0x82B JUMPI PUSH1 0x40 MLOAD PUSH32 0x8C379A000000000000000000000000000000000000000000000000000000000 DUP2 MSTORE PUSH1 0x4 ADD PUSH2 0x822 SWAP1 PUSH2 0x11DF JUMP JUMPDEST PUSH1 0x40 MLOAD DUP1 SWAP2 SUB SWAP1 REVERT JUMPDEST PUSH0 PUSH1 0x7 PUSH0 CALLER PUSH20 0xFFFFFFFFFFFFFFFFFFFFFFFFFFFFFFFFFFFFFFFF AND PUSH20 0xFFFFFFFFFFFFFFFFFFFFFFFFFFFFFFFFFFFFFFFF AND DUP2 MSTORE PUSH1 0x20 ADD SWAP1 DUP2 MSTORE PUSH1 0x20 ADD PUSH0 KECCAK256 DUP2 SWAP1 SSTORE POP DUP1 CALLER PUSH20 0xFFFFFFFFFFFFFFFFFFFFFFFFFFFFFFFFFFFFFFFF AND PUSH32 0xFC30CDDEA38E2BF4D6EA7D3F9ED3B6AD7F176419F4963BD81318067A4AEE73FE PUSH1 0x40 MLOAD PUSH1 0x40 MLOAD DUP1 SWAP2 SUB SWAP1 LOG3 PUSH0 PUSH1 0x2 PUSH0 SWAP1 SLOAD SWAP1 PUSH2 0x100 EXP SWAP1 DIV PUSH20 0xFFFFFFFFFFFFFFFFFFFFFFFFFFFFFFFFFFFFFFFF AND PUSH20 0xFFFFFFFFFFFFFFFFFFFFFFFFFFFFFFFFFFFFFFFF AND PUSH4 0xA9059CBB CALLER DUP5 PUSH1 0x40 MLOAD DUP4 PUSH4 0xFFFFFFFF AND PUSH1 0xE0 SHL DUP2 MSTORE PUSH1 0x4 ADD PUSH2 0x90E SWAP3 SWAP2 SWAP1 PUSH2 0x10A6 JUMP JUMPDEST PUSH1 0x20 PUSH1 0x40 MLOAD DUP1 DUP4 SUB DUP2 PUSH0 DUP8 GAS CALL ISZERO DUP1 ISZERO PUSH2 0x92A JUMPI RETURNDATASIZE PUSH0 DUP1 RETURNDATACOPY RETURNDATASIZE PUSH0 REVERT JUMPDEST POP POP POP POP PUSH1 0x40 MLOAD RETURNDATASIZE PUSH1 0x1F NOT PUSH1 0x1F DUP3 ADD AND DUP3 ADD DUP1 PUSH1 0x40 MSTORE POP DUP2 ADD SWAP1 PUSH2 0x94E SWAP2 SWAP1 PUSH2 0x1102 JUMP JUMPDEST SWAP1 POP DUP1 PUSH2 0x990 JUMPI PUSH1 0x40 MLOAD PUSH32 0x8C379A000000000000000000000000000000000000000000000000000000000 DUP2 MSTORE PUSH1 0x4 ADD PUSH2 0x987 SWAP1 PUSH2 0x1177 JUMP JUMPDEST PUSH1 0x40 MLOAD DUP1 SWAP2 SUB SWAP1 REVERT JUMPDEST POP POP POP PUSH2 0x99B PUSH2 0xE2B JUMP JUMPDEST JUMP JUMPDEST PUSH8 0xDE0B6B3A7640000 DUP2 JUMP JUMPDEST PUSH1 0x6 PUSH1 0x20 MSTORE DUP1 PUSH0 MSTORE PUSH1 0x40 PUSH0 KECCAK256 PUSH0 SWAP2 POP SWAP1 POP SLOAD DUP2 JUMP JUMPDEST PUSH1 0x2 PUSH0 SWAP1 SLOAD SWAP1 PUSH2 0x100 EXP SWAP1 DIV PUSH20 0xFFFFFFFFFFFFFFFFFFFFFFFFFFFFFFFFFFFFFFFF AND DUP2 JUMP JUMPDEST PUSH1 0x8 PUSH1 0x20 MSTORE DUP1 PUSH0 MSTORE PUSH1 0x40 PUSH0 KECCAK256 PUSH0 SWAP2 POP SWAP1 POP SLOAD DUP2 JUMP JUMPDEST PUSH2 0xA00 PUSH2 0xDDE JUMP JUMPDEST CALLER PUSH2 0xA09 PUSH2 0xCEF JUMP JUMPDEST PUSH1 0x4 DUP2 SWAP1 SSTORE POP TIMESTAMP PUSH1 0x5 DUP2 SWAP1 SSTORE POP PUSH2 0xA1F DUP2 PUSH2 0x286 JUMP JUMPDEST PUSH1 0x7 PUSH0 DUP4 PUSH20 0xFFFFFFFFFFFFFFFFFFFFFFFFFFFFFFFFFFFFFFFF AND PUSH20 0xFFFFFFFFFFFFFFFFFFFFFFFFFFFFFFFFFFFFFFFF AND DUP2 MSTORE PUSH1 0x20 ADD SWAP1 DUP2 MSTORE PUSH1 0x20 ADD PUSH0 KECCAK256 DUP2 SWAP1 SSTORE POP PUSH1 0x4 SLOAD PUSH1 0x8 PUSH0 DUP4 PUSH20 0xFFFFFFFFFFFFFFFFFFFFFFFFFFFFFFFFFFFFFFFF AND PUSH20 0xFFFFFFFFFFFFFFFFFFFFFFFFFFFFFFFFFFFFFFFF AND DUP2 MSTORE PUSH1 0x20 ADD SWAP1 DUP2 MSTORE PUSH1 0x20 ADD PUSH0 KECCAK256 DUP2 SWAP1 SSTORE POP PUSH0 DUP3 GT PUSH2 0xAE6 JUMPI PUSH1 0x40 MLOAD PUSH32 0x8C379A000000000000000000000000000000000000000000000000000000000 DUP2 MSTORE PUSH1 0x4 ADD PUSH2 0xADD SWAP1 PUSH2 0x1011 JUMP JUMPDEST PUSH1 0x40 MLOAD DUP1 SWAP2 SUB SWAP1 REVERT JUMPDEST PUSH2 0xAFB DUP3 PUSH1 0x3 SLOAD PUSH2 0xDC9 SWAP1 SWAP2 SWAP1 PUSH4 0xFFFFFFFF AND JUMP JUMPDEST PUSH1 0x3 DUP2 SWAP1 SSTORE POP PUSH2 0xB51 DUP3 PUSH1 0x6 PUSH0 CALLER PUSH20 0xFFFFFFFFFFFFFFFFFFFFFFFFFFFFFFFFFFFFFFFF AND PUSH20 0xFFFFFFFFFFFFFFFFFFFFFFFFFFFFFFFFFFFFFFFF AND DUP2 MSTORE PUSH1 0x20 ADD SWAP1 DUP2 MSTORE PUSH1 0x20 ADD PUSH0 KECCAK256 SLOAD PUSH2 0xDC9 SWAP1 SWAP2 SWAP1 PUSH4 0xFFFFFFFF AND JUMP JUMPDEST PUSH1 0x6 PUSH0 CALLER PUSH20 0xFFFFFFFFFFFFFFFFFFFFFFFFFFFFFFFFFFFFFFFF AND PUSH20 0xFFFFFFFFFFFFFFFFFFFFFFFFFFFFFFFFFFFFFFFF AND DUP2 MSTORE PUSH1 0x20 ADD SWAP1 DUP2 MSTORE PUSH1 0x20 ADD PUSH0 KECCAK256 DUP2 SWAP1 SSTORE POP DUP2 CALLER PUSH20 0xFFFFFFFFFFFFFFFFFFFFFFFFFFFFFFFFFFFFFFFF AND PUSH32 0x9E71BC8EEA02A63969F509818F2DAFB9254532904319F9DBDA79B67BD34A5F3D PUSH1 0x40 MLOAD PUSH1 0x40 MLOAD DUP1 SWAP2 SUB SWAP1 LOG3 PUSH0 PUSH1 0x1 PUSH0 SWAP1 SLOAD SWAP1 PUSH2 0x100 EXP SWAP1 DIV PUSH20 0xFFFFFFFFFFFFFFFFFFFFFFFFFFFFFFFFFFFFFFFF AND PUSH20 0xFFFFFFFFFFFFFFFFFFFFFFFFFFFFFFFFFFFFFFFF AND PUSH4 0x23B872DD CALLER ADDRESS DUP7 PUSH1 0x40 MLOAD DUP5 PUSH4 0xFFFFFFFF AND PUSH1 0xE0 SHL DUP2 MSTORE PUSH1 0x4 ADD PUSH2 0xC35 SWAP4 SWAP3 SWAP2 SWAP1 PUSH2 0x11FD JUMP JUMPDEST PUSH1 0x20 PUSH1 0x40 MLOAD DUP1 DUP4 SUB DUP2 PUSH0 DUP8 GAS CALL ISZERO DUP1 ISZERO PUSH2 0xC51 JUMPI RETURNDATASIZE PUSH0 DUP1 RETURNDATACOPY RETURNDATASIZE PUSH0 REVERT JUMPDEST POP POP POP POP PUSH1 0x40 MLOAD RETURNDATASIZE PUSH1 0x1F NOT PUSH1 0x1F DUP3 ADD AND DUP3 ADD DUP1 PUSH1 0x40 MSTORE POP DUP2 ADD SWAP1 PUSH2 0xC75 SWAP2 SWAP1 PUSH2 0x1102 JUMP JUMPDEST SWAP1 POP DUP1 PUSH2 0xCB7 JUMPI PUSH1 0x40 MLOAD PUSH32 0x8C379A000000000000000000000000000000000000000000000000000000000 DUP2 MSTORE PUSH1 0x4 ADD PUSH2 0xCAE SWAP1 PUSH2 0x1177 JUMP JUMPDEST PUSH1 0x40 MLOAD DUP1 SWAP2 SUB SWAP1 REVERT JUMPDEST POP POP PUSH2 0xCC1 PUSH2 0xE2B JUMP JUMPDEST POP JUMP JUMPDEST PUSH1 0x1 PUSH0 SWAP1 SLOAD SWAP1 PUSH2 0x100 EXP SWAP1 DIV PUSH20 0xFFFFFFFFFFFFFFFFFFFFFFFFFFFFFFFFFFFFFFFF AND DUP2 JUMP JUMPDEST PUSH1 0x5 SLOAD DUP2 JUMP JUMPDEST PUSH0 DUP1 PUSH1 0x3 SLOAD SUB PUSH2 0xD03 JUMPI PUSH1 0x4 SLOAD SWAP1 POP PUSH2 0xD81 JUMP JUMPDEST PUSH0 PUSH2 0xD19 PUSH1 0x5 SLOAD TIMESTAMP PUSH2 0xD8A SWAP1 SWAP2 SWAP1 PUSH4 0xFFFFFFFF AND JUMP JUMPDEST SWAP1 POP PUSH0 PUSH2 0xD37 DUP3 PUSH8 0xDE0B6B3A7640000 PUSH2 0xD9F SWAP1 SWAP2 SWAP1 PUSH4 0xFFFFFFFF AND JUMP JUMPDEST SWAP1 POP PUSH2 0xD7C PUSH2 0xD6B PUSH1 0x3 SLOAD PUSH2 0xD5D PUSH8 0xDE0B6B3A7640000 DUP6 PUSH2 0xD9F SWAP1 SWAP2 SWAP1 PUSH4 0xFFFFFFFF AND JUMP JUMPDEST PUSH2 0xDB4 SWAP1 SWAP2 SWAP1 PUSH4 0xFFFFFFFF AND JUMP JUMPDEST PUSH1 0x4 SLOAD PUSH2 0xDC9 SWAP1 SWAP2 SWAP1 PUSH4 0xFFFFFFFF AND JUMP JUMPDEST SWAP3 POP POP POP JUMPDEST SWAP1 JUMP JUMPDEST PUSH1 0x4 SLOAD DUP2 JUMP JUMPDEST PUSH0 DUP2 DUP4 PUSH2 0xD97 SWAP2 SWAP1 PUSH2 0x125F JUMP JUMPDEST SWAP1 POP SWAP3 SWAP2 POP POP JUMP JUMPDEST PUSH0 DUP2 DUP4 PUSH2 0xDAC SWAP2 SWAP1 PUSH2 0x1292 JUMP JUMPDEST SWAP1 POP SWAP3 SWAP2 POP POP JUMP JUMPDEST PUSH0 DUP2 DUP4 PUSH2 0xDC1 SWAP2 SWAP1 PUSH2 0x1300 JUMP JUMPDEST SWAP1 POP SWAP3 SWAP2 POP POP JUMP JUMPDEST PUSH0 DUP2 DUP4 PUSH2 0xDD6 SWAP2 SWAP1 PUSH2 0x1330 JUMP JUMPDEST SWAP1 POP SWAP3 SWAP2 POP POP JUMP JUMPDEST PUSH1 0x2 PUSH0 SLOAD SUB PUSH2 0xE22 JUMPI PUSH1 0x40 MLOAD PUSH32 0x8C379A000000000000000000000000000000000000000000000000000000000 DUP2 MSTORE PUSH1 0x4 ADD PUSH2 0xE19 SWAP1 PUSH2 0x13AD JUMP JUMPDEST PUSH1 0x40 MLOAD DUP1 SWAP2 SUB SWAP1 REVERT JUMPDEST PUSH1 0x2 PUSH0 DUP2 SWAP1 SSTORE POP JUMP JUMPDEST PUSH1 0x1 PUSH0 DUP2 SWAP1 SSTORE POP JUMP JUMPDEST PUSH0 DUP1 REVERT JUMPDEST PUSH0 PUSH20 0xFFFFFFFFFFFFFFFFFFFFFFFFFFFFFFFFFFFFFFFF DUP3 AND SWAP1 POP SWAP2 SWAP1 POP JUMP JUMPDEST PUSH0 PUSH2 0xE61 DUP3 PUSH2 0xE38 JUMP JUMPDEST SWAP1 POP SWAP2 SWAP1 POP JUMP JUMPDEST PUSH2 0xE71 DUP2 PUSH2 0xE57 JUMP JUMPDEST DUP2 EQ PUSH2 0xE7B JUMPI PUSH0 DUP1 REVERT JUMPDEST POP JUMP JUMPDEST PUSH0 DUP2 CALLDATALOAD SWAP1 POP PUSH2 0xE8C DUP2 PUSH2 0xE68 JUMP JUMPDEST SWAP3 SWAP2 POP POP JUMP JUMPDEST PUSH0 PUSH1 0x20 DUP3 DUP5 SUB SLT ISZERO PUSH2 0xEA7 JUMPI PUSH2 0xEA6 PUSH2 0xE34 JUMP JUMPDEST JUMPDEST PUSH0 PUSH2 0xEB4 DUP5 DUP3 DUP6 ADD PUSH2 0xE7E JUMP JUMPDEST SWAP2 POP POP SWAP3 SWAP2 POP POP JUMP JUMPDEST PUSH0 DUP2 SWAP1 POP SWAP2 SWAP1 POP JUMP JUMPDEST PUSH2 0xECF DUP2 PUSH2 0xEBD JUMP JUMPDEST DUP3 MSTORE POP POP JUMP JUMPDEST PUSH0 PUSH1 0x20 DUP3 ADD SWAP1 POP PUSH2 0xEE8 PUSH0 DUP4 ADD DUP5 PUSH2 0xEC6 JUMP JUMPDEST SWAP3 SWAP2 POP POP JUMP JUMPDEST PUSH2 0xEF7 DUP2 PUSH2 0xEBD JUMP JUMPDEST DUP2 EQ PUSH2 0xF01 JUMPI PUSH0 DUP1 REVERT JUMPDEST POP JUMP JUMPDEST PUSH0 DUP2 CALLDATALOAD SWAP1 POP PUSH2 0xF12 DUP2 PUSH2 0xEEE JUMP JUMPDEST SWAP3 SWAP2 POP POP JUMP JUMPDEST PUSH0 PUSH1 0x20 DUP3 DUP5 SUB SLT ISZERO PUSH2 0xF2D JUMPI PUSH2 0xF2C PUSH2 0xE34 JUMP JUMPDEST JUMPDEST PUSH0 PUSH2 0xF3A DUP5 DUP3 DUP6 ADD PUSH2 0xF04 JUMP JUMPDEST SWAP2 POP POP SWAP3 SWAP2 POP POP JUMP JUMPDEST PUSH0 DUP2 SWAP1 POP SWAP2 SWAP1 POP JUMP JUMPDEST PUSH0 PUSH2 0xF66 PUSH2 0xF61 PUSH2 0xF5C DUP5 PUSH2 0xE38 JUMP JUMPDEST PUSH2 0xF43 JUMP JUMPDEST PUSH2 0xE38 JUMP JUMPDEST SWAP1 POP SWAP2 SWAP1 POP JUMP JUMPDEST PUSH0 PUSH2 0xF77 DUP3 PUSH2 0xF4C JUMP JUMPDEST SWAP1 POP SWAP2 SWAP1 POP JUMP JUMPDEST PUSH0 PUSH2 0xF88 DUP3 PUSH2 0xF6D JUMP JUMPDEST SWAP1 POP SWAP2 SWAP1 POP JUMP JUMPDEST PUSH2 0xF98 DUP2 PUSH2 0xF7E JUMP JUMPDEST DUP3 MSTORE POP POP JUMP JUMPDEST PUSH0 PUSH1 0x20 DUP3 ADD SWAP1 POP PUSH2 0xFB1 PUSH0 DUP4 ADD DUP5 PUSH2 0xF8F JUMP JUMPDEST SWAP3 SWAP2 POP POP JUMP JUMPDEST PUSH0 DUP3 DUP3 MSTORE PUSH1 0x20 DUP3 ADD SWAP1 POP SWAP3 SWAP2 POP POP JUMP JUMPDEST PUSH32 0x416D6F756E74206D7573742062652067726561746572207468616E207A65726F PUSH0 DUP3 ADD MSTORE POP JUMP JUMPDEST PUSH0 PUSH2 0xFFB PUSH1 0x20 DUP4 PUSH2 0xFB7 JUMP JUMPDEST SWAP2 POP PUSH2 0x1006 DUP3 PUSH2 0xFC7 JUMP JUMPDEST PUSH1 0x20 DUP3 ADD SWAP1 POP SWAP2 SWAP1 POP JUMP JUMPDEST PUSH0 PUSH1 0x20 DUP3 ADD SWAP1 POP DUP2 DUP2 SUB PUSH0 DUP4 ADD MSTORE PUSH2 0x1028 DUP2 PUSH2 0xFEF JUMP JUMPDEST SWAP1 POP SWAP2 SWAP1 POP JUMP JUMPDEST PUSH32 0x5374616B656420616D6F756E74206E6F7420656E6F7567680000000000000000 PUSH0 DUP3 ADD MSTORE POP JUMP JUMPDEST PUSH0 PUSH2 0x1063 PUSH1 0x18 DUP4 PUSH2 0xFB7 JUMP JUMPDEST SWAP2 POP PUSH2 0x106E DUP3 PUSH2 0x102F JUMP JUMPDEST PUSH1 0x20 DUP3 ADD SWAP1 POP SWAP2 SWAP1 POP JUMP JUMPDEST PUSH0 PUSH1 0x20 DUP3 ADD SWAP1 POP DUP2 DUP2 SUB PUSH0 DUP4 ADD MSTORE PUSH2 0x1090 DUP2 PUSH2 0x1057 JUMP JUMPDEST SWAP1 POP SWAP2 SWAP1 POP JUMP JUMPDEST PUSH2 0x10A0 DUP2 PUSH2 0xE57 JUMP JUMPDEST DUP3 MSTORE POP POP JUMP JUMPDEST PUSH0 PUSH1 0x40 DUP3 ADD SWAP1 POP PUSH2 0x10B9 PUSH0 DUP4 ADD DUP6 PUSH2 0x1097 JUMP JUMPDEST PUSH2 0x10C6 PUSH1 0x20 DUP4 ADD DUP5 PUSH2 0xEC6 JUMP JUMPDEST SWAP4 SWAP3 POP POP POP JUMP JUMPDEST PUSH0 DUP2 ISZERO ISZERO SWAP1 POP SWAP2 SWAP1 POP JUMP JUMPDEST PUSH2 0x10E1 DUP2 PUSH2 0x10CD JUMP JUMPDEST DUP2 EQ PUSH2 0x10EB JUMPI PUSH0 DUP1 REVERT JUMPDEST POP JUMP JUMPDEST PUSH0 DUP2 MLOAD SWAP1 POP PUSH2 0x10FC DUP2 PUSH2 0x10D8 JUMP JUMPDEST SWAP3 SWAP2 POP POP JUMP JUMPDEST PUSH0 PUSH1 0x20 DUP3 DUP5 SUB SLT ISZERO PUSH2 0x1117 JUMPI PUSH2 0x1116 PUSH2 0xE34 JUMP JUMPDEST JUMPDEST PUSH0 PUSH2 0x1124 DUP5 DUP3 DUP6 ADD PUSH2 0x10EE JUMP JUMPDEST SWAP2 POP POP SWAP3 SWAP2 POP POP JUMP JUMPDEST PUSH32 0x5472616E73666572204661696C65640000000000000000000000000000000000 PUSH0 DUP3 ADD MSTORE POP JUMP JUMPDEST PUSH0 PUSH2 0x1161 PUSH1 0xF DUP4 PUSH2 0xFB7 JUMP JUMPDEST SWAP2 POP PUSH2 0x116C DUP3 PUSH2 0x112D JUMP JUMPDEST PUSH1 0x20 DUP3 ADD SWAP1 POP SWAP2 SWAP1 POP JUMP JUMPDEST PUSH0 PUSH1 0x20 DUP3 ADD SWAP1 POP DUP2 DUP2 SUB PUSH0 DUP4 ADD MSTORE PUSH2 0x118E DUP2 PUSH2 0x1155 JUMP JUMPDEST SWAP1 POP SWAP2 SWAP1 POP JUMP JUMPDEST PUSH32 0x4E6F207265776172647320746F20636C61696D00000000000000000000000000 PUSH0 DUP3 ADD MSTORE POP JUMP JUMPDEST PUSH0 PUSH2 0x11C9 PUSH1 0x13 DUP4 PUSH2 0xFB7 JUMP JUMPDEST SWAP2 POP PUSH2 0x11D4 DUP3 PUSH2 0x1195 JUMP JUMPDEST PUSH1 0x20 DUP3 ADD SWAP1 POP SWAP2 SWAP1 POP JUMP JUMPDEST PUSH0 PUSH1 0x20 DUP3 ADD SWAP1 POP DUP2 DUP2 SUB PUSH0 DUP4 ADD MSTORE PUSH2 0x11F6 DUP2 PUSH2 0x11BD JUMP JUMPDEST SWAP1 POP SWAP2 SWAP1 POP JUMP JUMPDEST PUSH0 PUSH1 0x60 DUP3 ADD SWAP1 POP PUSH2 0x1210 PUSH0 DUP4 ADD DUP7 PUSH2 0x1097 JUMP JUMPDEST PUSH2 0x121D PUSH1 0x20 DUP4 ADD DUP6 PUSH2 0x1097 JUMP JUMPDEST PUSH2 0x122A PUSH1 0x40 DUP4 ADD DUP5 PUSH2 0xEC6 JUMP JUMPDEST SWAP5 SWAP4 POP POP POP POP JUMP JUMPDEST PUSH32 0x4E487B7100000000000000000000000000000000000000000000000000000000 PUSH0 MSTORE PUSH1 0x11 PUSH1 0x4 MSTORE PUSH1 0x24 PUSH0 REVERT JUMPDEST PUSH0 PUSH2 0x1269 DUP3 PUSH2 0xEBD JUMP JUMPDEST SWAP2 POP PUSH2 0x1274 DUP4 PUSH2 0xEBD JUMP JUMPDEST SWAP3 POP DUP3 DUP3 SUB SWAP1 POP DUP2 DUP2 GT ISZERO PUSH2 0x128C JUMPI PUSH2 0x128B PUSH2 0x1232 JUMP JUMPDEST JUMPDEST SWAP3 SWAP2 POP POP JUMP JUMPDEST PUSH0 PUSH2 0x129C DUP3 PUSH2 0xEBD JUMP JUMPDEST SWAP2 POP PUSH2 0x12A7 DUP4 PUSH2 0xEBD JUMP JUMPDEST SWAP3 POP DUP3 DUP3 MUL PUSH2 0x12B5 DUP2 PUSH2 0xEBD JUMP JUMPDEST SWAP2 POP DUP3 DUP3 DIV DUP5 EQ DUP4 ISZERO OR PUSH2 0x12CC JUMPI PUSH2 0x12CB PUSH2 0x1232 JUMP JUMPDEST JUMPDEST POP SWAP3 SWAP2 POP POP JUMP JUMPDEST PUSH32 0x4E487B7100000000000000000000000000000000000000000000000000000000 PUSH0 MSTORE PUSH1 0x12 PUSH1 0x4 MSTORE PUSH1 0x24 PUSH0 REVERT JUMPDEST PUSH0 PUSH2 0x130A DUP3 PUSH2 0xEBD JUMP JUMPDEST SWAP2 POP PUSH2 0x1315 DUP4 PUSH2 0xEBD JUMP JUMPDEST SWAP3 POP DUP3 PUSH2 0x1325 JUMPI PUSH2 0x1324 PUSH2 0x12D3 JUMP JUMPDEST JUMPDEST DUP3 DUP3 DIV SWAP1 POP SWAP3 SWAP2 POP POP JUMP JUMPDEST PUSH0 PUSH2 0x133A DUP3 PUSH2 0xEBD JUMP JUMPDEST SWAP2 POP PUSH2 0x1345 DUP4 PUSH2 0xEBD JUMP JUMPDEST SWAP3 POP DUP3 DUP3 ADD SWAP1 POP DUP1 DUP3 GT ISZERO PUSH2 0x135D JUMPI PUSH2 0x135C PUSH2 0x1232 JUMP JUMPDEST JUMPDEST SWAP3 SWAP2 POP POP JUMP JUMPDEST PUSH32 0x5265656E7472616E637947756172643A207265656E7472616E742063616C6C00 PUSH0 DUP3 ADD MSTORE POP JUMP JUMPDEST PUSH0 PUSH2 0x1397 PUSH1 0x1F DUP4 PUSH2 0xFB7 JUMP JUMPDEST SWAP2 POP PUSH2 0x13A2 DUP3 PUSH2 0x1363 JUMP JUMPDEST PUSH1 0x20 DUP3 ADD SWAP1 POP SWAP2 SWAP1 POP JUMP JUMPDEST PUSH0 PUSH1 0x20 DUP3 ADD SWAP1 POP DUP2 DUP2 SUB PUSH0 DUP4 ADD MSTORE PUSH2 0x13C4 DUP2 PUSH2 0x138B JUMP JUMPDEST SWAP1 POP SWAP2 SWAP1 POP JUMP INVALID LOG2 PUSH5 0x6970667358 0x22 SLT KECCAK256 SWAP15 0xC2 PUSH23 0xCFC151374EE5F421FD5ACE5652653D419B5B9B932925F7 PUSH22 0x594BBEBBA864736F6C63430008170033000000000000 "
				},
				"gasEstimates": {
					"creation": {
						"codeDepositCost": "1024200",
						"executionCost": "infinite",
						"totalCost": "infinite"
					},
					"external": {
						"REWARD_RATE()": "414",
						"earned(address)": "infinite",
						"getReward()": "infinite",
						"lastUpdateTime()": "2469",
						"rewardPerToken()": "infinite",
						"rewardPerTokenStored()": "2513",
						"rewards(address)": "2825",
						"s_rewardToken()": "infinite",
						"s_stakingToken()": "infinite",
						"stake(uint256)": "infinite",
						"stakedBalance(address)": "2913",
						"userRewardPerTokenPaid(address)": "2847",
						"withdrawStakedTokens(uint256)": "infinite"
					}
				},
				"methodIdentifiers": {
					"REWARD_RATE()": "5997bb37",
					"earned(address)": "008cc262",
					"getReward()": "3d18b912",
					"lastUpdateTime()": "c8f33c91",
					"rewardPerToken()": "cd3daf9d",
					"rewardPerTokenStored()": "df136d65",
					"rewards(address)": "0700037d",
					"s_rewardToken()": "6374cc00",
					"s_stakingToken()": "adca9b72",
					"stake(uint256)": "a694fc3a",
					"stakedBalance(address)": "60217267",
					"userRewardPerTokenPaid(address)": "8b876347",
					"withdrawStakedTokens(uint256)": "0a57336a"
				}
			},
			"storageLayout": {
				"storage": [
					{
						"astId": 10,
						"contract": "contracts/Staking.sol:Staking",
						"label": "_status",
						"offset": 0,
						"slot": "0",
						"type": "t_uint256"
					},
					{
						"astId": 467,
						"contract": "contracts/Staking.sol:Staking",
						"label": "s_stakingToken",
						"offset": 0,
						"slot": "1",
						"type": "t_contract(IERC20)142"
					},
					{
						"astId": 470,
						"contract": "contracts/Staking.sol:Staking",
						"label": "s_rewardToken",
						"offset": 0,
						"slot": "2",
						"type": "t_contract(IERC20)142"
					},
					{
						"astId": 475,
						"contract": "contracts/Staking.sol:Staking",
						"label": "totalStakedTokens",
						"offset": 0,
						"slot": "3",
						"type": "t_uint256"
					},
					{
						"astId": 477,
						"contract": "contracts/Staking.sol:Staking",
						"label": "rewardPerTokenStored",
						"offset": 0,
						"slot": "4",
						"type": "t_uint256"
					},
					{
						"astId": 479,
						"contract": "contracts/Staking.sol:Staking",
						"label": "lastUpdateTime",
						"offset": 0,
						"slot": "5",
						"type": "t_uint256"
					},
					{
						"astId": 483,
						"contract": "contracts/Staking.sol:Staking",
						"label": "stakedBalance",
						"offset": 0,
						"slot": "6",
						"type": "t_mapping(t_address,t_uint256)"
					},
					{
						"astId": 487,
						"contract": "contracts/Staking.sol:Staking",
						"label": "rewards",
						"offset": 0,
						"slot": "7",
						"type": "t_mapping(t_address,t_uint256)"
					},
					{
						"astId": 491,
						"contract": "contracts/Staking.sol:Staking",
						"label": "userRewardPerTokenPaid",
						"offset": 0,
						"slot": "8",
						"type": "t_mapping(t_address,t_uint256)"
					}
				],
				"types": {
					"t_address": {
						"encoding": "inplace",
						"label": "address",
						"numberOfBytes": "20"
					},
					"t_contract(IERC20)142": {
						"encoding": "inplace",
						"label": "contract IERC20",
						"numberOfBytes": "20"
					},
					"t_mapping(t_address,t_uint256)": {
						"encoding": "mapping",
						"key": "t_address",
						"label": "mapping(address => uint256)",
						"numberOfBytes": "32",
						"value": "t_uint256"
					},
					"t_uint256": {
						"encoding": "inplace",
						"label": "uint256",
						"numberOfBytes": "32"
					}
				}
			},
			"userdoc": {
				"kind": "user",
				"methods": {},
				"version": 1
			}
		}
	}
}